{
  "contractName": "Deployer",
  "abi": [
    {
      "inputs": [],
      "stateMutability": "nonpayable",
      "type": "constructor"
    },
    {
      "inputs": [
        {
          "internalType": "string",
          "name": "name",
          "type": "string"
        },
        {
          "internalType": "string",
          "name": "symbol",
          "type": "string"
        },
        {
          "internalType": "string",
          "name": "uri",
          "type": "string"
        }
      ],
      "name": "deployERC721Contract",
      "outputs": [
        {
          "internalType": "address",
          "name": "token",
          "type": "address"
        }
      ],
      "stateMutability": "nonpayable",
      "type": "function"
    }
  ],
  "bytecode": "0x608060405234801561001057600080fd5b50614199806100206000396000f3fe60806040523480156200001157600080fd5b50600436106200002e5760003560e01c80637808740e1462000033575b600080fd5b6200005160048036038101906200004b919062000235565b62000069565b60405162000060919062000333565b60405180910390f35b60008383836040516200007c90620000b1565b6200008a93929190620003e3565b604051809103906000f080158015620000a7573d6000803e3d6000fd5b5090509392505050565b613d2e806200043683390190565b6000604051905090565b600080fd5b600080fd5b600080fd5b600080fd5b6000601f19601f8301169050919050565b7f4e487b7100000000000000000000000000000000000000000000000000000000600052604160045260246000fd5b6200012882620000dd565b810181811067ffffffffffffffff821117156200014a5762000149620000ee565b5b80604052505050565b60006200015f620000bf565b90506200016d82826200011d565b919050565b600067ffffffffffffffff82111562000190576200018f620000ee565b5b6200019b82620000dd565b9050602081019050919050565b82818337600083830152505050565b6000620001ce620001c88462000172565b62000153565b905082815260208101848484011115620001ed57620001ec620000d8565b5b620001fa848285620001a8565b509392505050565b600082601f8301126200021a5762000219620000d3565b5b81356200022c848260208601620001b7565b91505092915050565b600080600060608486031215620002515762000250620000c9565b5b600084013567ffffffffffffffff811115620002725762000271620000ce565b5b620002808682870162000202565b935050602084013567ffffffffffffffff811115620002a457620002a3620000ce565b5b620002b28682870162000202565b925050604084013567ffffffffffffffff811115620002d657620002d5620000ce565b5b620002e48682870162000202565b9150509250925092565b600073ffffffffffffffffffffffffffffffffffffffff82169050919050565b60006200031b82620002ee565b9050919050565b6200032d816200030e565b82525050565b60006020820190506200034a600083018462000322565b92915050565b600081519050919050565b600082825260208201905092915050565b60005b838110156200038c5780820151818401526020810190506200036f565b838111156200039c576000848401525b50505050565b6000620003af8262000350565b620003bb81856200035b565b9350620003cd8185602086016200036c565b620003d881620000dd565b840191505092915050565b60006060820190508181036000830152620003ff8186620003a2565b90508181036020830152620004158185620003a2565b905081810360408301526200042b8184620003a2565b905094935050505056fe60806040523480156200001157600080fd5b5060405162003d2e38038062003d2e833981810160405281019062000037919062000304565b8282816000908051906020019062000051929190620000b7565b5080600190805190602001906200006a929190620000b7565b50505033600660006101000a81548173ffffffffffffffffffffffffffffffffffffffff021916908373ffffffffffffffffffffffffffffffffffffffff16021790555050505062000421565b828054620000c590620003ec565b90600052602060002090601f016020900481019282620000e9576000855562000135565b82601f106200010457805160ff191683800117855562000135565b8280016001018555821562000135579182015b828111156200013457825182559160200191906001019062000117565b5b50905062000144919062000148565b5090565b5b808211156200016357600081600090555060010162000149565b5090565b6000604051905090565b600080fd5b600080fd5b600080fd5b600080fd5b6000601f19601f8301169050919050565b7f4e487b7100000000000000000000000000000000000000000000000000000000600052604160045260246000fd5b620001d08262000185565b810181811067ffffffffffffffff82111715620001f257620001f162000196565b5b80604052505050565b60006200020762000167565b9050620002158282620001c5565b919050565b600067ffffffffffffffff82111562000238576200023762000196565b5b620002438262000185565b9050602081019050919050565b60005b838110156200027057808201518184015260208101905062000253565b8381111562000280576000848401525b50505050565b60006200029d62000297846200021a565b620001fb565b905082815260208101848484011115620002bc57620002bb62000180565b5b620002c984828562000250565b509392505050565b600082601f830112620002e957620002e86200017b565b5b8151620002fb84826020860162000286565b91505092915050565b60008060006060848603121562000320576200031f62000171565b5b600084015167ffffffffffffffff81111562000341576200034062000176565b5b6200034f86828701620002d1565b935050602084015167ffffffffffffffff81111562000373576200037262000176565b5b6200038186828701620002d1565b925050604084015167ffffffffffffffff811115620003a557620003a462000176565b5b620003b386828701620002d1565b9150509250925092565b7f4e487b7100000000000000000000000000000000000000000000000000000000600052602260045260246000fd5b600060028204905060018216806200040557607f821691505b6020821081036200041b576200041a620003bd565b5b50919050565b6138fd80620004316000396000f3fe608060405234801561001057600080fd5b50600436106101e55760003560e01c8063750142e61161010f578063b88a802f116100a2578063f368fb3f11610071578063f368fb3f14610599578063f80cde3b146105c9578063f835cd3c146105e5578063f8b440fb14610603576101e5565b8063b88a802f14610513578063b88d4fde1461051d578063c87b56dd14610539578063e985e9c514610569576101e5565b8063a5be6c14116100de578063a5be6c1414610476578063a89ae4ba146104a7578063a9b47a66146104c5578063ad8d6f2c146104f5576101e5565b8063750142e6146103ff5780637a5b4f591461041d57806395d89b411461043c578063a22cb4651461045a576101e5565b8063327d5e35116101875780634667c770116101565780634667c770146103515780636352211e1461038157806370a08231146103b157806374958e35146103e1576101e5565b8063327d5e35146102db5780633653c1ff146102f9578063392e53cd1461031757806342842e0e14610335576101e5565b8063095ea7b3116101c3578063095ea7b31461026857806313af40351461028457806323b872dd146102a05780632f8dc1ce146102bc576101e5565b806301ffc9a7146101ea57806306fdde031461021a578063081812fc14610238575b600080fd5b61020460048036038101906101ff91906123d8565b610621565b6040516102119190612420565b60405180910390f35b610222610703565b60405161022f91906124d4565b60405180910390f35b610252600480360381019061024d919061252c565b610795565b60405161025f919061259a565b60405180910390f35b610282600480360381019061027d91906125e1565b61081a565b005b61029e60048036038101906102999190612621565b610931565b005b6102ba60048036038101906102b5919061264e565b610a74565b005b6102c4610ad4565b6040516102d29291906126b0565b60405180910390f35b6102e3610b6c565b6040516102f091906124d4565b60405180910390f35b610301610bfa565b60405161030e91906124d4565b60405180910390f35b61031f610c88565b60405161032c9190612420565b60405180910390f35b61034f600480360381019061034a919061264e565b610c9f565b005b61036b60048036038101906103669190612621565b610cbf565b6040516103789190612420565b60405180910390f35b61039b6004803603810190610396919061252c565b610cdf565b6040516103a8919061259a565b60405180910390f35b6103cb60048036038101906103c69190612621565b610d90565b6040516103d891906126d9565b60405180910390f35b6103e9610e47565b6040516103f691906126d9565b60405180910390f35b610407610e4d565b60405161041491906126d9565b60405180910390f35b610425610e53565b6040516104339291906126f4565b60405180910390f35b610444610f7a565b60405161045191906124d4565b60405180910390f35b610474600480360381019061046f9190612757565b61100c565b005b610490600480360381019061048b9190612621565b611022565b60405161049e9291906126b0565b60405180910390f35b6104af6110bb565b6040516104bc919061259a565b60405180910390f35b6104df60048036038101906104da9190612621565b6110e1565b6040516104ec91906126d9565b60405180910390f35b6104fd6110f9565b60405161050a91906126d9565b60405180910390f35b61051b6110ff565b005b610537600480360381019061053291906128cc565b611348565b005b610553600480360381019061054e919061252c565b6113aa565b60405161056091906124d4565b60405180910390f35b610583600480360381019061057e919061294f565b611451565b6040516105909190612420565b60405180910390f35b6105b360048036038101906105ae9190612a30565b6114e5565b6040516105c09190612420565b60405180910390f35b6105e360048036038101906105de91906125e1565b6116b4565b005b6105ed6118cf565b6040516105fa919061259a565b60405180910390f35b61060b6118f5565b60405161061891906126d9565b60405180910390f35b60007f80ac58cd000000000000000000000000000000000000000000000000000000007bffffffffffffffffffffffffffffffffffffffffffffffffffffffff1916827bffffffffffffffffffffffffffffffffffffffffffffffffffffffff191614806106ec57507f5b5e139f000000000000000000000000000000000000000000000000000000007bffffffffffffffffffffffffffffffffffffffffffffffffffffffff1916827bffffffffffffffffffffffffffffffffffffffffffffffffffffffff1916145b806106fc57506106fb826118fb565b5b9050919050565b60606000805461071290612b24565b80601f016020809104026020016040519081016040528092919081815260200182805461073e90612b24565b801561078b5780601f106107605761010080835404028352916020019161078b565b820191906000526020600020905b81548152906001019060200180831161076e57829003601f168201915b5050505050905090565b60006107a082611965565b6107df576040517f08c379a00000000000000000000000000000000000000000000000000000000081526004016107d690612bc7565b60405180910390fd5b6004600083815260200190815260200160002060009054906101000a900473ffffffffffffffffffffffffffffffffffffffff169050919050565b600061082582610cdf565b90508073ffffffffffffffffffffffffffffffffffffffff168373ffffffffffffffffffffffffffffffffffffffff1603610895576040517f08c379a000000000000000000000000000000000000000000000000000000000815260040161088c90612c59565b60405180910390fd5b8073ffffffffffffffffffffffffffffffffffffffff166108b46119d1565b73ffffffffffffffffffffffffffffffffffffffff1614806108e357506108e2816108dd6119d1565b611451565b5b610922576040517f08c379a000000000000000000000000000000000000000000000000000000000815260040161091990612ceb565b60405180910390fd5b61092c83836119d9565b505050565b600660009054906101000a900473ffffffffffffffffffffffffffffffffffffffff1673ffffffffffffffffffffffffffffffffffffffff163373ffffffffffffffffffffffffffffffffffffffff16146109c1576040517f08c379a00000000000000000000000000000000000000000000000000000000081526004016109b890612d57565b60405180910390fd5b600073ffffffffffffffffffffffffffffffffffffffff168173ffffffffffffffffffffffffffffffffffffffff1603610a30576040517f08c379a0000000000000000000000000000000000000000000000000000000008152600401610a2790612dc3565b60405180910390fd5b80600660006101000a81548173ffffffffffffffffffffffffffffffffffffffff021916908373ffffffffffffffffffffffffffffffffffffffff16021790555050565b610a85610a7f6119d1565b82611a92565b610ac4576040517f08c379a0000000000000000000000000000000000000000000000000000000008152600401610abb90612e55565b60405180910390fd5b610acf838383611b70565b505050565b600080600a60003373ffffffffffffffffffffffffffffffffffffffff1673ffffffffffffffffffffffffffffffffffffffff16815260200190815260200160002060009054906101000a900460ff16600b60003373ffffffffffffffffffffffffffffffffffffffff1673ffffffffffffffffffffffffffffffffffffffff16815260200190815260200160002054915091509091565b60088054610b7990612b24565b80601f0160208091040260200160405190810160405280929190818152602001828054610ba590612b24565b8015610bf25780601f10610bc757610100808354040283529160200191610bf2565b820191906000526020600020905b815481529060010190602001808311610bd557829003601f168201915b505050505081565b60078054610c0790612b24565b80601f0160208091040260200160405190810160405280929190818152602001828054610c3390612b24565b8015610c805780601f10610c5557610100808354040283529160200191610c80565b820191906000526020600020905b815481529060010190602001808311610c6357829003601f168201915b505050505081565b6000600960009054906101000a900460ff16905090565b610cba83838360405180602001604052806000815250611348565b505050565b600a6020528060005260406000206000915054906101000a900460ff1681565b6000806002600084815260200190815260200160002060009054906101000a900473ffffffffffffffffffffffffffffffffffffffff169050600073ffffffffffffffffffffffffffffffffffffffff168173ffffffffffffffffffffffffffffffffffffffff1603610d87576040517f08c379a0000000000000000000000000000000000000000000000000000000008152600401610d7e90612ee7565b60405180910390fd5b80915050919050565b60008073ffffffffffffffffffffffffffffffffffffffff168273ffffffffffffffffffffffffffffffffffffffff1603610e00576040517f08c379a0000000000000000000000000000000000000000000000000000000008152600401610df790612f79565b60405180910390fd5b600360008373ffffffffffffffffffffffffffffffffffffffff1673ffffffffffffffffffffffffffffffffffffffff168152602001908152602001600020549050919050565b60105481565b600f5481565b60608060076008818054610e6690612b24565b80601f0160208091040260200160405190810160405280929190818152602001828054610e9290612b24565b8015610edf5780601f10610eb457610100808354040283529160200191610edf565b820191906000526020600020905b815481529060010190602001808311610ec257829003601f168201915b50505050509150808054610ef290612b24565b80601f0160208091040260200160405190810160405280929190818152602001828054610f1e90612b24565b8015610f6b5780601f10610f4057610100808354040283529160200191610f6b565b820191906000526020600020905b815481529060010190602001808311610f4e57829003601f168201915b50505050509050915091509091565b606060018054610f8990612b24565b80601f0160208091040260200160405190810160405280929190818152602001828054610fb590612b24565b80156110025780601f10610fd757610100808354040283529160200191611002565b820191906000526020600020905b815481529060010190602001808311610fe557829003601f168201915b5050505050905090565b61101e6110176119d1565b8383611dd6565b5050565b600080600a60008473ffffffffffffffffffffffffffffffffffffffff1673ffffffffffffffffffffffffffffffffffffffff16815260200190815260200160002060009054906101000a900460ff16600b60008573ffffffffffffffffffffffffffffffffffffffff1673ffffffffffffffffffffffffffffffffffffffff1681526020019081526020016000205491509150915091565b600c60009054906101000a900473ffffffffffffffffffffffffffffffffffffffff1681565b600b6020528060005260406000206000915090505481565b600e5481565b60001515600a60003373ffffffffffffffffffffffffffffffffffffffff1673ffffffffffffffffffffffffffffffffffffffff16815260200190815260200160002060009054906101000a900460ff16151514611192576040517f08c379a000000000000000000000000000000000000000000000000000000000815260040161118990612fe5565b60405180910390fd5b6001600a60003373ffffffffffffffffffffffffffffffffffffffff1673ffffffffffffffffffffffffffffffffffffffff16815260200190815260200160002060006101000a81548160ff0219169083151502179055506000600b60003373ffffffffffffffffffffffffffffffffffffffff1673ffffffffffffffffffffffffffffffffffffffff16815260200190815260200160002054905080601060008282546112409190613034565b92505081905550600d60009054906101000a900473ffffffffffffffffffffffffffffffffffffffff1673ffffffffffffffffffffffffffffffffffffffff1663a9059cbb33836040518363ffffffff1660e01b81526004016112a492919061308a565b6020604051808303816000875af11580156112c3573d6000803e3d6000fd5b505050506040513d601f19601f820116820180604052508101906112e791906130c8565b507f8e0d3fa908fd7ee819155b3ce71e292b601bbeb0cd00d7758b9d226a523cb8273382600d60009054906101000a900473ffffffffffffffffffffffffffffffffffffffff1660405161133d939291906130f5565b60405180910390a150565b6113596113536119d1565b83611a92565b611398576040517f08c379a000000000000000000000000000000000000000000000000000000000815260040161138f90612e55565b60405180910390fd5b6113a484848484611f42565b50505050565b60606113b582611965565b6113f4576040517f08c379a00000000000000000000000000000000000000000000000000000000081526004016113eb9061319e565b60405180910390fd5b60006113fe611f9e565b9050600081511161141e5760405180602001604052806000815250611449565b8061142884611fb5565b6040516020016114399291906131fa565b6040516020818303038152906040525b915050919050565b6000600560008473ffffffffffffffffffffffffffffffffffffffff1673ffffffffffffffffffffffffffffffffffffffff16815260200190815260200160002060008373ffffffffffffffffffffffffffffffffffffffff1673ffffffffffffffffffffffffffffffffffffffff16815260200190815260200160002060009054906101000a900460ff16905092915050565b6000600660009054906101000a900473ffffffffffffffffffffffffffffffffffffffff1673ffffffffffffffffffffffffffffffffffffffff163373ffffffffffffffffffffffffffffffffffffffff1614611577576040517f08c379a000000000000000000000000000000000000000000000000000000000815260040161156e90612d57565b60405180910390fd5b60011515600960009054906101000a900460ff161515036115cd576040517f08c379a00000000000000000000000000000000000000000000000000000000081526004016115c49061326a565b60405180910390fd5b86600790805190602001906115e39291906122c9565b5085600890805190602001906115fa9291906122c9565b506001600960006101000a81548160ff02191690831515021790555084600e8190555083600f8190555082600d60006101000a81548173ffffffffffffffffffffffffffffffffffffffff021916908373ffffffffffffffffffffffffffffffffffffffff16021790555081600c60006101000a81548173ffffffffffffffffffffffffffffffffffffffff021916908373ffffffffffffffffffffffffffffffffffffffff160217905550600190509695505050505050565b600c60009054906101000a900473ffffffffffffffffffffffffffffffffffffffff1673ffffffffffffffffffffffffffffffffffffffff163373ffffffffffffffffffffffffffffffffffffffff1614611744576040517f08c379a000000000000000000000000000000000000000000000000000000000815260040161173b906132d6565b60405180910390fd5b60001515600a60008473ffffffffffffffffffffffffffffffffffffffff1673ffffffffffffffffffffffffffffffffffffffff16815260200190815260200160002060009054906101000a900460ff161515146117d7576040517f08c379a00000000000000000000000000000000000000000000000000000000081526004016117ce90612fe5565b60405180910390fd5b600e5481111561181c576040517f08c379a000000000000000000000000000000000000000000000000000000000815260040161181390613342565b60405180910390fd5b600f548160115461182d9190613034565b111561186e576040517f08c379a0000000000000000000000000000000000000000000000000000000008152600401611865906133d4565b60405180910390fd5b80601160008282546118809190613034565b9250508190555080600b60008473ffffffffffffffffffffffffffffffffffffffff1673ffffffffffffffffffffffffffffffffffffffff168152602001908152602001600020819055505050565b600d60009054906101000a900473ffffffffffffffffffffffffffffffffffffffff1681565b60115481565b60007f01ffc9a7000000000000000000000000000000000000000000000000000000007bffffffffffffffffffffffffffffffffffffffffffffffffffffffff1916827bffffffffffffffffffffffffffffffffffffffffffffffffffffffff1916149050919050565b60008073ffffffffffffffffffffffffffffffffffffffff166002600084815260200190815260200160002060009054906101000a900473ffffffffffffffffffffffffffffffffffffffff1673ffffffffffffffffffffffffffffffffffffffff1614159050919050565b600033905090565b816004600083815260200190815260200160002060006101000a81548173ffffffffffffffffffffffffffffffffffffffff021916908373ffffffffffffffffffffffffffffffffffffffff160217905550808273ffffffffffffffffffffffffffffffffffffffff16611a4c83610cdf565b73ffffffffffffffffffffffffffffffffffffffff167f8c5be1e5ebec7d5bd14f71427d1e84f3dd0314c0f7b2291e5b200ac8c7c3b92560405160405180910390a45050565b6000611a9d82611965565b611adc576040517f08c379a0000000000000000000000000000000000000000000000000000000008152600401611ad390613466565b60405180910390fd5b6000611ae783610cdf565b90508073ffffffffffffffffffffffffffffffffffffffff168473ffffffffffffffffffffffffffffffffffffffff161480611b295750611b288185611451565b5b80611b6757508373ffffffffffffffffffffffffffffffffffffffff16611b4f84610795565b73ffffffffffffffffffffffffffffffffffffffff16145b91505092915050565b8273ffffffffffffffffffffffffffffffffffffffff16611b9082610cdf565b73ffffffffffffffffffffffffffffffffffffffff1614611be6576040517f08c379a0000000000000000000000000000000000000000000000000000000008152600401611bdd906134f8565b60405180910390fd5b600073ffffffffffffffffffffffffffffffffffffffff168273ffffffffffffffffffffffffffffffffffffffff1603611c55576040517f08c379a0000000000000000000000000000000000000000000000000000000008152600401611c4c9061358a565b60405180910390fd5b611c60838383612115565b611c6b6000826119d9565b6001600360008573ffffffffffffffffffffffffffffffffffffffff1673ffffffffffffffffffffffffffffffffffffffff1681526020019081526020016000206000828254611cbb91906135aa565b925050819055506001600360008473ffffffffffffffffffffffffffffffffffffffff1673ffffffffffffffffffffffffffffffffffffffff1681526020019081526020016000206000828254611d129190613034565b92505081905550816002600083815260200190815260200160002060006101000a81548173ffffffffffffffffffffffffffffffffffffffff021916908373ffffffffffffffffffffffffffffffffffffffff160217905550808273ffffffffffffffffffffffffffffffffffffffff168473ffffffffffffffffffffffffffffffffffffffff167fddf252ad1be2c89b69c2b068fc378daa952ba7f163c4a11628f55a4df523b3ef60405160405180910390a4611dd183838361211a565b505050565b8173ffffffffffffffffffffffffffffffffffffffff168373ffffffffffffffffffffffffffffffffffffffff1603611e44576040517f08c379a0000000000000000000000000000000000000000000000000000000008152600401611e3b9061362a565b60405180910390fd5b80600560008573ffffffffffffffffffffffffffffffffffffffff1673ffffffffffffffffffffffffffffffffffffffff16815260200190815260200160002060008473ffffffffffffffffffffffffffffffffffffffff1673ffffffffffffffffffffffffffffffffffffffff16815260200190815260200160002060006101000a81548160ff0219169083151502179055508173ffffffffffffffffffffffffffffffffffffffff168373ffffffffffffffffffffffffffffffffffffffff167f17307eab39ab6107e8899845ad3d59bd9653f200f220920489ca2b5937696c3183604051611f359190612420565b60405180910390a3505050565b611f4d848484611b70565b611f598484848461211f565b611f98576040517f08c379a0000000000000000000000000000000000000000000000000000000008152600401611f8f906136bc565b60405180910390fd5b50505050565b606060405180602001604052806000815250905090565b606060008203611ffc576040518060400160405280600181526020017f30000000000000000000000000000000000000000000000000000000000000008152509050612110565b600082905060005b6000821461202e578080612017906136dc565b915050600a826120279190613753565b9150612004565b60008167ffffffffffffffff81111561204a576120496127a1565b5b6040519080825280601f01601f19166020018201604052801561207c5781602001600182028036833780820191505090505b5090505b600085146121095760018261209591906135aa565b9150600a856120a49190613784565b60306120b09190613034565b60f81b8183815181106120c6576120c56137b5565b5b60200101907effffffffffffffffffffffffffffffffffffffffffffffffffffffffffffff1916908160001a905350600a856121029190613753565b9450612080565b8093505050505b919050565b505050565b505050565b60006121408473ffffffffffffffffffffffffffffffffffffffff166122a6565b15612299578373ffffffffffffffffffffffffffffffffffffffff1663150b7a026121696119d1565b8786866040518563ffffffff1660e01b815260040161218b9493929190613839565b6020604051808303816000875af19250505080156121c757506040513d601f19601f820116820180604052508101906121c4919061389a565b60015b612249573d80600081146121f7576040519150601f19603f3d011682016040523d82523d6000602084013e6121fc565b606091505b506000815103612241576040517f08c379a0000000000000000000000000000000000000000000000000000000008152600401612238906136bc565b60405180910390fd5b805181602001fd5b63150b7a0260e01b7bffffffffffffffffffffffffffffffffffffffffffffffffffffffff1916817bffffffffffffffffffffffffffffffffffffffffffffffffffffffff19161491505061229e565b600190505b949350505050565b6000808273ffffffffffffffffffffffffffffffffffffffff163b119050919050565b8280546122d590612b24565b90600052602060002090601f0160209004810192826122f7576000855561233e565b82601f1061231057805160ff191683800117855561233e565b8280016001018555821561233e579182015b8281111561233d578251825591602001919060010190612322565b5b50905061234b919061234f565b5090565b5b80821115612368576000816000905550600101612350565b5090565b6000604051905090565b600080fd5b600080fd5b60007fffffffff0000000000000000000000000000000000000000000000000000000082169050919050565b6123b581612380565b81146123c057600080fd5b50565b6000813590506123d2816123ac565b92915050565b6000602082840312156123ee576123ed612376565b5b60006123fc848285016123c3565b91505092915050565b60008115159050919050565b61241a81612405565b82525050565b60006020820190506124356000830184612411565b92915050565b600081519050919050565b600082825260208201905092915050565b60005b8381101561247557808201518184015260208101905061245a565b83811115612484576000848401525b50505050565b6000601f19601f8301169050919050565b60006124a68261243b565b6124b08185612446565b93506124c0818560208601612457565b6124c98161248a565b840191505092915050565b600060208201905081810360008301526124ee818461249b565b905092915050565b6000819050919050565b612509816124f6565b811461251457600080fd5b50565b60008135905061252681612500565b92915050565b60006020828403121561254257612541612376565b5b600061255084828501612517565b91505092915050565b600073ffffffffffffffffffffffffffffffffffffffff82169050919050565b600061258482612559565b9050919050565b61259481612579565b82525050565b60006020820190506125af600083018461258b565b92915050565b6125be81612579565b81146125c957600080fd5b50565b6000813590506125db816125b5565b92915050565b600080604083850312156125f8576125f7612376565b5b6000612606858286016125cc565b925050602061261785828601612517565b9150509250929050565b60006020828403121561263757612636612376565b5b6000612645848285016125cc565b91505092915050565b60008060006060848603121561266757612666612376565b5b6000612675868287016125cc565b9350506020612686868287016125cc565b925050604061269786828701612517565b9150509250925092565b6126aa816124f6565b82525050565b60006040820190506126c56000830185612411565b6126d260208301846126a1565b9392505050565b60006020820190506126ee60008301846126a1565b92915050565b6000604082019050818103600083015261270e818561249b565b90508181036020830152612722818461249b565b90509392505050565b61273481612405565b811461273f57600080fd5b50565b6000813590506127518161272b565b92915050565b6000806040838503121561276e5761276d612376565b5b600061277c858286016125cc565b925050602061278d85828601612742565b9150509250929050565b600080fd5b600080fd5b7f4e487b7100000000000000000000000000000000000000000000000000000000600052604160045260246000fd5b6127d98261248a565b810181811067ffffffffffffffff821117156127f8576127f76127a1565b5b80604052505050565b600061280b61236c565b905061281782826127d0565b919050565b600067ffffffffffffffff821115612837576128366127a1565b5b6128408261248a565b9050602081019050919050565b82818337600083830152505050565b600061286f61286a8461281c565b612801565b90508281526020810184848401111561288b5761288a61279c565b5b61289684828561284d565b509392505050565b600082601f8301126128b3576128b2612797565b5b81356128c384826020860161285c565b91505092915050565b600080600080608085870312156128e6576128e5612376565b5b60006128f4878288016125cc565b9450506020612905878288016125cc565b935050604061291687828801612517565b925050606085013567ffffffffffffffff8111156129375761293661237b565b5b6129438782880161289e565b91505092959194509250565b6000806040838503121561296657612965612376565b5b6000612974858286016125cc565b9250506020612985858286016125cc565b9150509250929050565b600067ffffffffffffffff8211156129aa576129a96127a1565b5b6129b38261248a565b9050602081019050919050565b60006129d36129ce8461298f565b612801565b9050828152602081018484840111156129ef576129ee61279c565b5b6129fa84828561284d565b509392505050565b600082601f830112612a1757612a16612797565b5b8135612a278482602086016129c0565b91505092915050565b60008060008060008060c08789031215612a4d57612a4c612376565b5b600087013567ffffffffffffffff811115612a6b57612a6a61237b565b5b612a7789828a01612a02565b965050602087013567ffffffffffffffff811115612a9857612a9761237b565b5b612aa489828a01612a02565b9550506040612ab589828a01612517565b9450506060612ac689828a01612517565b9350506080612ad789828a016125cc565b92505060a0612ae889828a016125cc565b9150509295509295509295565b7f4e487b7100000000000000000000000000000000000000000000000000000000600052602260045260246000fd5b60006002820490506001821680612b3c57607f821691505b602082108103612b4f57612b4e612af5565b5b50919050565b7f4552433732313a20617070726f76656420717565727920666f72206e6f6e657860008201527f697374656e7420746f6b656e0000000000000000000000000000000000000000602082015250565b6000612bb1602c83612446565b9150612bbc82612b55565b604082019050919050565b60006020820190508181036000830152612be081612ba4565b9050919050565b7f4552433732313a20617070726f76616c20746f2063757272656e74206f776e6560008201527f7200000000000000000000000000000000000000000000000000000000000000602082015250565b6000612c43602183612446565b9150612c4e82612be7565b604082019050919050565b60006020820190508181036000830152612c7281612c36565b9050919050565b7f4552433732313a20617070726f76652063616c6c6572206973206e6f74206f7760008201527f6e6572206e6f7220617070726f76656420666f7220616c6c0000000000000000602082015250565b6000612cd5603883612446565b9150612ce082612c79565b604082019050919050565b60006020820190508181036000830152612d0481612cc8565b9050919050565b7f4e6f74206f776e65720000000000000000000000000000000000000000000000600082015250565b6000612d41600983612446565b9150612d4c82612d0b565b602082019050919050565b60006020820190508181036000830152612d7081612d34565b9050919050565b7f496e76616c696420616464726573730000000000000000000000000000000000600082015250565b6000612dad600f83612446565b9150612db882612d77565b602082019050919050565b60006020820190508181036000830152612ddc81612da0565b9050919050565b7f4552433732313a207472616e736665722063616c6c6572206973206e6f74206f60008201527f776e6572206e6f7220617070726f766564000000000000000000000000000000602082015250565b6000612e3f603183612446565b9150612e4a82612de3565b604082019050919050565b60006020820190508181036000830152612e6e81612e32565b9050919050565b7f4552433732313a206f776e657220717565727920666f72206e6f6e657869737460008201527f656e7420746f6b656e0000000000000000000000000000000000000000000000602082015250565b6000612ed1602983612446565b9150612edc82612e75565b604082019050919050565b60006020820190508181036000830152612f0081612ec4565b9050919050565b7f4552433732313a2062616c616e636520717565727920666f7220746865207a6560008201527f726f206164647265737300000000000000000000000000000000000000000000602082015250565b6000612f63602a83612446565b9150612f6e82612f07565b604082019050919050565b60006020820190508181036000830152612f9281612f56565b9050919050565b7f5573657220616c726561647920636c61696d6564207265776172647300000000600082015250565b6000612fcf601c83612446565b9150612fda82612f99565b602082019050919050565b60006020820190508181036000830152612ffe81612fc2565b9050919050565b7f4e487b7100000000000000000000000000000000000000000000000000000000600052601160045260246000fd5b600061303f826124f6565b915061304a836124f6565b9250827fffffffffffffffffffffffffffffffffffffffffffffffffffffffffffffffff0382111561307f5761307e613005565b5b828201905092915050565b600060408201905061309f600083018561258b565b6130ac60208301846126a1565b9392505050565b6000815190506130c28161272b565b92915050565b6000602082840312156130de576130dd612376565b5b60006130ec848285016130b3565b91505092915050565b600060608201905061310a600083018661258b565b61311760208301856126a1565b613124604083018461258b565b949350505050565b7f4552433732314d657461646174613a2055524920717565727920666f72206e6f60008201527f6e6578697374656e7420746f6b656e0000000000000000000000000000000000602082015250565b6000613188602f83612446565b91506131938261312c565b604082019050919050565b600060208201905081810360008301526131b78161317b565b9050919050565b600081905092915050565b60006131d48261243b565b6131de81856131be565b93506131ee818560208601612457565b80840191505092915050565b600061320682856131c9565b915061321282846131c9565b91508190509392505050565b7f436f6e747261637420616c726561647920696e697469616c697a656400000000600082015250565b6000613254601c83612446565b915061325f8261321e565b602082019050919050565b6000602082019050818103600083015261328381613247565b9050919050565b7f4e6f74206f7261636c6520616464726573730000000000000000000000000000600082015250565b60006132c0601283612446565b91506132cb8261328a565b602082019050919050565b600060208201905081810360008301526132ef816132b3565b9050919050565b7f52657761726420616d6f756e742065786365656473206c696d69740000000000600082015250565b600061332c601b83612446565b9150613337826132f6565b602082019050919050565b6000602082019050818103600083015261335b8161331f565b9050919050565b7f52657761726420616d6f756e74206578636565647320746f74616c206c696d6960008201527f7400000000000000000000000000000000000000000000000000000000000000602082015250565b60006133be602183612446565b91506133c982613362565b604082019050919050565b600060208201905081810360008301526133ed816133b1565b9050919050565b7f4552433732313a206f70657261746f7220717565727920666f72206e6f6e657860008201527f697374656e7420746f6b656e0000000000000000000000000000000000000000602082015250565b6000613450602c83612446565b915061345b826133f4565b604082019050919050565b6000602082019050818103600083015261347f81613443565b9050919050565b7f4552433732313a207472616e736665722066726f6d20696e636f72726563742060008201527f6f776e6572000000000000000000000000000000000000000000000000000000602082015250565b60006134e2602583612446565b91506134ed82613486565b604082019050919050565b60006020820190508181036000830152613511816134d5565b9050919050565b7f4552433732313a207472616e7366657220746f20746865207a65726f2061646460008201527f7265737300000000000000000000000000000000000000000000000000000000602082015250565b6000613574602483612446565b915061357f82613518565b604082019050919050565b600060208201905081810360008301526135a381613567565b9050919050565b60006135b5826124f6565b91506135c0836124f6565b9250828210156135d3576135d2613005565b5b828203905092915050565b7f4552433732313a20617070726f766520746f2063616c6c657200000000000000600082015250565b6000613614601983612446565b915061361f826135de565b602082019050919050565b6000602082019050818103600083015261364381613607565b9050919050565b7f4552433732313a207472616e7366657220746f206e6f6e20455243373231526560008201527f63656976657220696d706c656d656e7465720000000000000000000000000000602082015250565b60006136a6603283612446565b91506136b18261364a565b604082019050919050565b600060208201905081810360008301526136d581613699565b9050919050565b60006136e7826124f6565b91507fffffffffffffffffffffffffffffffffffffffffffffffffffffffffffffffff820361371957613718613005565b5b600182019050919050565b7f4e487b7100000000000000000000000000000000000000000000000000000000600052601260045260246000fd5b600061375e826124f6565b9150613769836124f6565b92508261377957613778613724565b5b828204905092915050565b600061378f826124f6565b915061379a836124f6565b9250826137aa576137a9613724565b5b828206905092915050565b7f4e487b7100000000000000000000000000000000000000000000000000000000600052603260045260246000fd5b600081519050919050565b600082825260208201905092915050565b600061380b826137e4565b61381581856137ef565b9350613825818560208601612457565b61382e8161248a565b840191505092915050565b600060808201905061384e600083018761258b565b61385b602083018661258b565b61386860408301856126a1565b818103606083015261387a8184613800565b905095945050505050565b600081519050613894816123ac565b92915050565b6000602082840312156138b0576138af612376565b5b60006138be84828501613885565b9150509291505056fea26469706673582212208edeaedea6f115eaf2cebd952b31a8e48f20107e25bebe9ae098fc784f84ab8764736f6c634300080e0033a26469706673582212208361435ad78f200468c85e2e6bdbcb1f0f944c435cfe1a31a60146e546c08aab64736f6c634300080e0033",
  "immutableReferences": {},
  "source": "// SPDX-License-Identifier: Apache-2.0\n\npragma solidity ^0.8.12;\n\nimport \"./ERC721Template.sol\";\n\ncontract Deployer {\n    constructor() {}\n\n    function deployERC721Contract(\n        string memory name,\n        string memory symbol,\n        string memory uri\n    ) public returns (address token) {\n        token = address(new ERC721Template(name, symbol, uri));\n    }\n}\n",
  "sourcePath": "/home/ash/Desktop/git/insights-contracts/contracts/Deployer.sol",
  "compiler": {
    "name": "solc",
    "version": "0.8.14+commit.80d49f37.Emscripten.clang"
  },
  "schemaVersion": "3.4.7",
  "updatedAt": "2022-06-14T14:46:12.630Z",
  "devdoc": {
    "kind": "dev",
    "methods": {},
    "version": 1
  },
  "userdoc": {
    "kind": "user",
    "methods": {},
    "version": 1
  }
}