{
  "contractName": "ERC721Template",
  "abi": [
    {
      "inputs": [
        {
          "internalType": "string",
          "name": "name",
          "type": "string"
        },
        {
          "internalType": "string",
          "name": "symbol",
          "type": "string"
        },
        {
          "internalType": "string",
          "name": "URI",
          "type": "string"
        }
      ],
      "stateMutability": "nonpayable",
      "type": "constructor"
    },
    {
      "anonymous": false,
      "inputs": [
        {
          "indexed": true,
          "internalType": "address",
          "name": "owner",
          "type": "address"
        },
        {
          "indexed": true,
          "internalType": "address",
          "name": "approved",
          "type": "address"
        },
        {
          "indexed": true,
          "internalType": "uint256",
          "name": "tokenId",
          "type": "uint256"
        }
      ],
      "name": "Approval",
      "type": "event"
    },
    {
      "anonymous": false,
      "inputs": [
        {
          "indexed": true,
          "internalType": "address",
          "name": "owner",
          "type": "address"
        },
        {
          "indexed": true,
          "internalType": "address",
          "name": "operator",
          "type": "address"
        },
        {
          "indexed": false,
          "internalType": "bool",
          "name": "approved",
          "type": "bool"
        }
      ],
      "name": "ApprovalForAll",
      "type": "event"
    },
    {
      "anonymous": false,
      "inputs": [
        {
          "indexed": true,
          "internalType": "address",
          "name": "from",
          "type": "address"
        },
        {
          "indexed": true,
          "internalType": "address",
          "name": "to",
          "type": "address"
        },
        {
          "indexed": true,
          "internalType": "uint256",
          "name": "tokenId",
          "type": "uint256"
        }
      ],
      "name": "Transfer",
      "type": "event"
    },
    {
      "inputs": [
        {
          "internalType": "address",
          "name": "to",
          "type": "address"
        },
        {
          "internalType": "uint256",
          "name": "tokenId",
          "type": "uint256"
        }
      ],
      "name": "approve",
      "outputs": [],
      "stateMutability": "nonpayable",
      "type": "function"
    },
    {
      "inputs": [
        {
          "internalType": "address",
          "name": "owner",
          "type": "address"
        }
      ],
      "name": "balanceOf",
      "outputs": [
        {
          "internalType": "uint256",
          "name": "",
          "type": "uint256"
        }
      ],
      "stateMutability": "view",
      "type": "function"
    },
    {
      "inputs": [
        {
          "internalType": "uint256",
          "name": "tokenId",
          "type": "uint256"
        }
      ],
      "name": "getApproved",
      "outputs": [
        {
          "internalType": "address",
          "name": "",
          "type": "address"
        }
      ],
      "stateMutability": "view",
      "type": "function"
    },
    {
      "inputs": [
        {
          "internalType": "address",
          "name": "owner",
          "type": "address"
        },
        {
          "internalType": "address",
          "name": "operator",
          "type": "address"
        }
      ],
      "name": "isApprovedForAll",
      "outputs": [
        {
          "internalType": "bool",
          "name": "",
          "type": "bool"
        }
      ],
      "stateMutability": "view",
      "type": "function"
    },
    {
      "inputs": [],
      "name": "name",
      "outputs": [
        {
          "internalType": "string",
          "name": "",
          "type": "string"
        }
      ],
      "stateMutability": "view",
      "type": "function"
    },
    {
      "inputs": [
        {
          "internalType": "uint256",
          "name": "tokenId",
          "type": "uint256"
        }
      ],
      "name": "ownerOf",
      "outputs": [
        {
          "internalType": "address",
          "name": "",
          "type": "address"
        }
      ],
      "stateMutability": "view",
      "type": "function"
    },
    {
      "inputs": [
        {
          "internalType": "address",
          "name": "from",
          "type": "address"
        },
        {
          "internalType": "address",
          "name": "to",
          "type": "address"
        },
        {
          "internalType": "uint256",
          "name": "tokenId",
          "type": "uint256"
        }
      ],
      "name": "safeTransferFrom",
      "outputs": [],
      "stateMutability": "nonpayable",
      "type": "function"
    },
    {
      "inputs": [
        {
          "internalType": "address",
          "name": "from",
          "type": "address"
        },
        {
          "internalType": "address",
          "name": "to",
          "type": "address"
        },
        {
          "internalType": "uint256",
          "name": "tokenId",
          "type": "uint256"
        },
        {
          "internalType": "bytes",
          "name": "_data",
          "type": "bytes"
        }
      ],
      "name": "safeTransferFrom",
      "outputs": [],
      "stateMutability": "nonpayable",
      "type": "function"
    },
    {
      "inputs": [
        {
          "internalType": "address",
          "name": "operator",
          "type": "address"
        },
        {
          "internalType": "bool",
          "name": "approved",
          "type": "bool"
        }
      ],
      "name": "setApprovalForAll",
      "outputs": [],
      "stateMutability": "nonpayable",
      "type": "function"
    },
    {
      "inputs": [
        {
          "internalType": "address",
          "name": "_newOwner",
          "type": "address"
        }
      ],
      "name": "setOwner",
      "outputs": [],
      "stateMutability": "nonpayable",
      "type": "function"
    },
    {
      "inputs": [],
      "name": "submission_url",
      "outputs": [
        {
          "internalType": "string",
          "name": "",
          "type": "string"
        }
      ],
      "stateMutability": "view",
      "type": "function"
    },
    {
      "inputs": [
        {
          "internalType": "bytes4",
          "name": "interfaceId",
          "type": "bytes4"
        }
      ],
      "name": "supportsInterface",
      "outputs": [
        {
          "internalType": "bool",
          "name": "",
          "type": "bool"
        }
      ],
      "stateMutability": "view",
      "type": "function"
    },
    {
      "inputs": [],
      "name": "symbol",
      "outputs": [
        {
          "internalType": "string",
          "name": "",
          "type": "string"
        }
      ],
      "stateMutability": "view",
      "type": "function"
    },
    {
      "inputs": [],
      "name": "template_url",
      "outputs": [
        {
          "internalType": "string",
          "name": "",
          "type": "string"
        }
      ],
      "stateMutability": "view",
      "type": "function"
    },
    {
      "inputs": [
        {
          "internalType": "uint256",
          "name": "tokenId",
          "type": "uint256"
        }
      ],
      "name": "tokenURI",
      "outputs": [
        {
          "internalType": "string",
          "name": "",
          "type": "string"
        }
      ],
      "stateMutability": "view",
      "type": "function"
    },
    {
      "inputs": [
        {
          "internalType": "address",
          "name": "from",
          "type": "address"
        },
        {
          "internalType": "address",
          "name": "to",
          "type": "address"
        },
        {
          "internalType": "uint256",
          "name": "tokenId",
          "type": "uint256"
        }
      ],
      "name": "transferFrom",
      "outputs": [],
      "stateMutability": "nonpayable",
      "type": "function"
    },
    {
      "inputs": [
        {
          "internalType": "string",
          "name": "_template_url",
          "type": "string"
        },
        {
          "internalType": "string",
          "name": "_submission_url",
          "type": "string"
        }
      ],
      "name": "initiailize",
      "outputs": [
        {
          "internalType": "bool",
          "name": "",
          "type": "bool"
        }
      ],
      "stateMutability": "nonpayable",
      "type": "function"
    },
    {
      "inputs": [],
      "name": "isInitialized",
      "outputs": [
        {
          "internalType": "bool",
          "name": "",
          "type": "bool"
        }
      ],
      "stateMutability": "view",
      "type": "function"
    },
    {
      "inputs": [],
      "name": "getMetadata",
      "outputs": [
        {
          "internalType": "string",
          "name": "_template_url",
          "type": "string"
        },
        {
          "internalType": "string",
          "name": "_submission_url",
          "type": "string"
        }
      ],
      "stateMutability": "view",
      "type": "function"
    }
  ],
  "bytecode": "0x60806040523480156200001157600080fd5b506040516200309d3803806200309d833981810160405281019062000037919062000304565b8282816000908051906020019062000051929190620000b7565b5080600190805190602001906200006a929190620000b7565b50505033600660006101000a81548173ffffffffffffffffffffffffffffffffffffffff021916908373ffffffffffffffffffffffffffffffffffffffff16021790555050505062000421565b828054620000c590620003ec565b90600052602060002090601f016020900481019282620000e9576000855562000135565b82601f106200010457805160ff191683800117855562000135565b8280016001018555821562000135579182015b828111156200013457825182559160200191906001019062000117565b5b50905062000144919062000148565b5090565b5b808211156200016357600081600090555060010162000149565b5090565b6000604051905090565b600080fd5b600080fd5b600080fd5b600080fd5b6000601f19601f8301169050919050565b7f4e487b7100000000000000000000000000000000000000000000000000000000600052604160045260246000fd5b620001d08262000185565b810181811067ffffffffffffffff82111715620001f257620001f162000196565b5b80604052505050565b60006200020762000167565b9050620002158282620001c5565b919050565b600067ffffffffffffffff82111562000238576200023762000196565b5b620002438262000185565b9050602081019050919050565b60005b838110156200027057808201518184015260208101905062000253565b8381111562000280576000848401525b50505050565b60006200029d62000297846200021a565b620001fb565b905082815260208101848484011115620002bc57620002bb62000180565b5b620002c984828562000250565b509392505050565b600082601f830112620002e957620002e86200017b565b5b8151620002fb84826020860162000286565b91505092915050565b60008060006060848603121562000320576200031f62000171565b5b600084015167ffffffffffffffff81111562000341576200034062000176565b5b6200034f86828701620002d1565b935050602084015167ffffffffffffffff81111562000373576200037262000176565b5b6200038186828701620002d1565b925050604084015167ffffffffffffffff811115620003a557620003a462000176565b5b620003b386828701620002d1565b9150509250925092565b7f4e487b7100000000000000000000000000000000000000000000000000000000600052602260045260246000fd5b600060028204905060018216806200040557607f821691505b6020821081036200041b576200041a620003bd565b5b50919050565b612c6c80620004316000396000f3fe608060405234801561001057600080fd5b50600436106101215760003560e01c8063392e53cd116100ad57806395d89b411161007157806395d89b411461031d578063a22cb4651461033b578063b88d4fde14610357578063c87b56dd14610373578063e985e9c5146103a357610121565b8063392e53cd1461026457806342842e0e146102825780636352211e1461029e57806370a08231146102ce5780637a5b4f59146102fe57610121565b8063095ea7b3116100f4578063095ea7b3146101d457806313af4035146101f057806323b872dd1461020c578063327d5e35146102285780633653c1ff1461024657610121565b806301ffc9a714610126578063029b6cc31461015657806306fdde0314610186578063081812fc146101a4575b600080fd5b610140600480360381019061013b9190611a35565b6103d3565b60405161014d9190611a7d565b60405180910390f35b610170600480360381019061016b9190611bde565b6104b5565b60405161017d9190611a7d565b60405180910390f35b61018e610560565b60405161019b9190611cde565b60405180910390f35b6101be60048036038101906101b99190611d36565b6105f2565b6040516101cb9190611da4565b60405180910390f35b6101ee60048036038101906101e99190611deb565b610677565b005b61020a60048036038101906102059190611e2b565b61078e565b005b61022660048036038101906102219190611e58565b6108d1565b005b610230610931565b60405161023d9190611cde565b60405180910390f35b61024e6109bf565b60405161025b9190611cde565b60405180910390f35b61026c610a4d565b6040516102799190611a7d565b60405180910390f35b61029c60048036038101906102979190611e58565b610a64565b005b6102b860048036038101906102b39190611d36565b610a84565b6040516102c59190611da4565b60405180910390f35b6102e860048036038101906102e39190611e2b565b610b35565b6040516102f59190611eba565b60405180910390f35b610306610bec565b604051610314929190611ed5565b60405180910390f35b610325610d13565b6040516103329190611cde565b60405180910390f35b61035560048036038101906103509190611f38565b610da5565b005b610371600480360381019061036c9190612019565b610dbb565b005b61038d60048036038101906103889190611d36565b610e1d565b60405161039a9190611cde565b60405180910390f35b6103bd60048036038101906103b8919061209c565b610ec4565b6040516103ca9190611a7d565b60405180910390f35b60007f80ac58cd000000000000000000000000000000000000000000000000000000007bffffffffffffffffffffffffffffffffffffffffffffffffffffffff1916827bffffffffffffffffffffffffffffffffffffffffffffffffffffffff1916148061049e57507f5b5e139f000000000000000000000000000000000000000000000000000000007bffffffffffffffffffffffffffffffffffffffffffffffffffffffff1916827bffffffffffffffffffffffffffffffffffffffffffffffffffffffff1916145b806104ae57506104ad82610f58565b5b9050919050565b600060011515600960009054906101000a900460ff1615150361050d576040517f08c379a000000000000000000000000000000000000000000000000000000000815260040161050490612128565b60405180910390fd5b8260079080519060200190610523929190611926565b50816008908051906020019061053a929190611926565b506001600960006101000a81548160ff0219169083151502179055506001905092915050565b60606000805461056f90612177565b80601f016020809104026020016040519081016040528092919081815260200182805461059b90612177565b80156105e85780601f106105bd576101008083540402835291602001916105e8565b820191906000526020600020905b8154815290600101906020018083116105cb57829003601f168201915b5050505050905090565b60006105fd82610fc2565b61063c576040517f08c379a00000000000000000000000000000000000000000000000000000000081526004016106339061221a565b60405180910390fd5b6004600083815260200190815260200160002060009054906101000a900473ffffffffffffffffffffffffffffffffffffffff169050919050565b600061068282610a84565b90508073ffffffffffffffffffffffffffffffffffffffff168373ffffffffffffffffffffffffffffffffffffffff16036106f2576040517f08c379a00000000000000000000000000000000000000000000000000000000081526004016106e9906122ac565b60405180910390fd5b8073ffffffffffffffffffffffffffffffffffffffff1661071161102e565b73ffffffffffffffffffffffffffffffffffffffff161480610740575061073f8161073a61102e565b610ec4565b5b61077f576040517f08c379a00000000000000000000000000000000000000000000000000000000081526004016107769061233e565b60405180910390fd5b6107898383611036565b505050565b600660009054906101000a900473ffffffffffffffffffffffffffffffffffffffff1673ffffffffffffffffffffffffffffffffffffffff163373ffffffffffffffffffffffffffffffffffffffff161461081e576040517f08c379a0000000000000000000000000000000000000000000000000000000008152600401610815906123aa565b60405180910390fd5b600073ffffffffffffffffffffffffffffffffffffffff168173ffffffffffffffffffffffffffffffffffffffff160361088d576040517f08c379a000000000000000000000000000000000000000000000000000000000815260040161088490612416565b60405180910390fd5b80600660006101000a81548173ffffffffffffffffffffffffffffffffffffffff021916908373ffffffffffffffffffffffffffffffffffffffff16021790555050565b6108e26108dc61102e565b826110ef565b610921576040517f08c379a0000000000000000000000000000000000000000000000000000000008152600401610918906124a8565b60405180910390fd5b61092c8383836111cd565b505050565b6008805461093e90612177565b80601f016020809104026020016040519081016040528092919081815260200182805461096a90612177565b80156109b75780601f1061098c576101008083540402835291602001916109b7565b820191906000526020600020905b81548152906001019060200180831161099a57829003601f168201915b505050505081565b600780546109cc90612177565b80601f01602080910402602001604051908101604052809291908181526020018280546109f890612177565b8015610a455780601f10610a1a57610100808354040283529160200191610a45565b820191906000526020600020905b815481529060010190602001808311610a2857829003601f168201915b505050505081565b6000600960009054906101000a900460ff16905090565b610a7f83838360405180602001604052806000815250610dbb565b505050565b6000806002600084815260200190815260200160002060009054906101000a900473ffffffffffffffffffffffffffffffffffffffff169050600073ffffffffffffffffffffffffffffffffffffffff168173ffffffffffffffffffffffffffffffffffffffff1603610b2c576040517f08c379a0000000000000000000000000000000000000000000000000000000008152600401610b239061253a565b60405180910390fd5b80915050919050565b60008073ffffffffffffffffffffffffffffffffffffffff168273ffffffffffffffffffffffffffffffffffffffff1603610ba5576040517f08c379a0000000000000000000000000000000000000000000000000000000008152600401610b9c906125cc565b60405180910390fd5b600360008373ffffffffffffffffffffffffffffffffffffffff1673ffffffffffffffffffffffffffffffffffffffff168152602001908152602001600020549050919050565b60608060076008818054610bff90612177565b80601f0160208091040260200160405190810160405280929190818152602001828054610c2b90612177565b8015610c785780601f10610c4d57610100808354040283529160200191610c78565b820191906000526020600020905b815481529060010190602001808311610c5b57829003601f168201915b50505050509150808054610c8b90612177565b80601f0160208091040260200160405190810160405280929190818152602001828054610cb790612177565b8015610d045780601f10610cd957610100808354040283529160200191610d04565b820191906000526020600020905b815481529060010190602001808311610ce757829003601f168201915b50505050509050915091509091565b606060018054610d2290612177565b80601f0160208091040260200160405190810160405280929190818152602001828054610d4e90612177565b8015610d9b5780601f10610d7057610100808354040283529160200191610d9b565b820191906000526020600020905b815481529060010190602001808311610d7e57829003601f168201915b5050505050905090565b610db7610db061102e565b8383611433565b5050565b610dcc610dc661102e565b836110ef565b610e0b576040517f08c379a0000000000000000000000000000000000000000000000000000000008152600401610e02906124a8565b60405180910390fd5b610e178484848461159f565b50505050565b6060610e2882610fc2565b610e67576040517f08c379a0000000000000000000000000000000000000000000000000000000008152600401610e5e9061265e565b60405180910390fd5b6000610e716115fb565b90506000815111610e915760405180602001604052806000815250610ebc565b80610e9b84611612565b604051602001610eac9291906126ba565b6040516020818303038152906040525b915050919050565b6000600560008473ffffffffffffffffffffffffffffffffffffffff1673ffffffffffffffffffffffffffffffffffffffff16815260200190815260200160002060008373ffffffffffffffffffffffffffffffffffffffff1673ffffffffffffffffffffffffffffffffffffffff16815260200190815260200160002060009054906101000a900460ff16905092915050565b60007f01ffc9a7000000000000000000000000000000000000000000000000000000007bffffffffffffffffffffffffffffffffffffffffffffffffffffffff1916827bffffffffffffffffffffffffffffffffffffffffffffffffffffffff1916149050919050565b60008073ffffffffffffffffffffffffffffffffffffffff166002600084815260200190815260200160002060009054906101000a900473ffffffffffffffffffffffffffffffffffffffff1673ffffffffffffffffffffffffffffffffffffffff1614159050919050565b600033905090565b816004600083815260200190815260200160002060006101000a81548173ffffffffffffffffffffffffffffffffffffffff021916908373ffffffffffffffffffffffffffffffffffffffff160217905550808273ffffffffffffffffffffffffffffffffffffffff166110a983610a84565b73ffffffffffffffffffffffffffffffffffffffff167f8c5be1e5ebec7d5bd14f71427d1e84f3dd0314c0f7b2291e5b200ac8c7c3b92560405160405180910390a45050565b60006110fa82610fc2565b611139576040517f08c379a000000000000000000000000000000000000000000000000000000000815260040161113090612750565b60405180910390fd5b600061114483610a84565b90508073ffffffffffffffffffffffffffffffffffffffff168473ffffffffffffffffffffffffffffffffffffffff16148061118657506111858185610ec4565b5b806111c457508373ffffffffffffffffffffffffffffffffffffffff166111ac846105f2565b73ffffffffffffffffffffffffffffffffffffffff16145b91505092915050565b8273ffffffffffffffffffffffffffffffffffffffff166111ed82610a84565b73ffffffffffffffffffffffffffffffffffffffff1614611243576040517f08c379a000000000000000000000000000000000000000000000000000000000815260040161123a906127e2565b60405180910390fd5b600073ffffffffffffffffffffffffffffffffffffffff168273ffffffffffffffffffffffffffffffffffffffff16036112b2576040517f08c379a00000000000000000000000000000000000000000000000000000000081526004016112a990612874565b60405180910390fd5b6112bd838383611772565b6112c8600082611036565b6001600360008573ffffffffffffffffffffffffffffffffffffffff1673ffffffffffffffffffffffffffffffffffffffff168152602001908152602001600020600082825461131891906128c3565b925050819055506001600360008473ffffffffffffffffffffffffffffffffffffffff1673ffffffffffffffffffffffffffffffffffffffff168152602001908152602001600020600082825461136f91906128f7565b92505081905550816002600083815260200190815260200160002060006101000a81548173ffffffffffffffffffffffffffffffffffffffff021916908373ffffffffffffffffffffffffffffffffffffffff160217905550808273ffffffffffffffffffffffffffffffffffffffff168473ffffffffffffffffffffffffffffffffffffffff167fddf252ad1be2c89b69c2b068fc378daa952ba7f163c4a11628f55a4df523b3ef60405160405180910390a461142e838383611777565b505050565b8173ffffffffffffffffffffffffffffffffffffffff168373ffffffffffffffffffffffffffffffffffffffff16036114a1576040517f08c379a000000000000000000000000000000000000000000000000000000000815260040161149890612999565b60405180910390fd5b80600560008573ffffffffffffffffffffffffffffffffffffffff1673ffffffffffffffffffffffffffffffffffffffff16815260200190815260200160002060008473ffffffffffffffffffffffffffffffffffffffff1673ffffffffffffffffffffffffffffffffffffffff16815260200190815260200160002060006101000a81548160ff0219169083151502179055508173ffffffffffffffffffffffffffffffffffffffff168373ffffffffffffffffffffffffffffffffffffffff167f17307eab39ab6107e8899845ad3d59bd9653f200f220920489ca2b5937696c31836040516115929190611a7d565b60405180910390a3505050565b6115aa8484846111cd565b6115b68484848461177c565b6115f5576040517f08c379a00000000000000000000000000000000000000000000000000000000081526004016115ec90612a2b565b60405180910390fd5b50505050565b606060405180602001604052806000815250905090565b606060008203611659576040518060400160405280600181526020017f3000000000000000000000000000000000000000000000000000000000000000815250905061176d565b600082905060005b6000821461168b57808061167490612a4b565b915050600a826116849190612ac2565b9150611661565b60008167ffffffffffffffff8111156116a7576116a6611ab3565b5b6040519080825280601f01601f1916602001820160405280156116d95781602001600182028036833780820191505090505b5090505b60008514611766576001826116f291906128c3565b9150600a856117019190612af3565b603061170d91906128f7565b60f81b81838151811061172357611722612b24565b5b60200101907effffffffffffffffffffffffffffffffffffffffffffffffffffffffffffff1916908160001a905350600a8561175f9190612ac2565b94506116dd565b8093505050505b919050565b505050565b505050565b600061179d8473ffffffffffffffffffffffffffffffffffffffff16611903565b156118f6578373ffffffffffffffffffffffffffffffffffffffff1663150b7a026117c661102e565b8786866040518563ffffffff1660e01b81526004016117e89493929190612ba8565b6020604051808303816000875af192505050801561182457506040513d601f19601f820116820180604052508101906118219190612c09565b60015b6118a6573d8060008114611854576040519150601f19603f3d011682016040523d82523d6000602084013e611859565b606091505b50600081510361189e576040517f08c379a000000000000000000000000000000000000000000000000000000000815260040161189590612a2b565b60405180910390fd5b805181602001fd5b63150b7a0260e01b7bffffffffffffffffffffffffffffffffffffffffffffffffffffffff1916817bffffffffffffffffffffffffffffffffffffffffffffffffffffffff1916149150506118fb565b600190505b949350505050565b6000808273ffffffffffffffffffffffffffffffffffffffff163b119050919050565b82805461193290612177565b90600052602060002090601f016020900481019282611954576000855561199b565b82601f1061196d57805160ff191683800117855561199b565b8280016001018555821561199b579182015b8281111561199a57825182559160200191906001019061197f565b5b5090506119a891906119ac565b5090565b5b808211156119c55760008160009055506001016119ad565b5090565b6000604051905090565b600080fd5b600080fd5b60007fffffffff0000000000000000000000000000000000000000000000000000000082169050919050565b611a12816119dd565b8114611a1d57600080fd5b50565b600081359050611a2f81611a09565b92915050565b600060208284031215611a4b57611a4a6119d3565b5b6000611a5984828501611a20565b91505092915050565b60008115159050919050565b611a7781611a62565b82525050565b6000602082019050611a926000830184611a6e565b92915050565b600080fd5b600080fd5b6000601f19601f8301169050919050565b7f4e487b7100000000000000000000000000000000000000000000000000000000600052604160045260246000fd5b611aeb82611aa2565b810181811067ffffffffffffffff82111715611b0a57611b09611ab3565b5b80604052505050565b6000611b1d6119c9565b9050611b298282611ae2565b919050565b600067ffffffffffffffff821115611b4957611b48611ab3565b5b611b5282611aa2565b9050602081019050919050565b82818337600083830152505050565b6000611b81611b7c84611b2e565b611b13565b905082815260208101848484011115611b9d57611b9c611a9d565b5b611ba8848285611b5f565b509392505050565b600082601f830112611bc557611bc4611a98565b5b8135611bd5848260208601611b6e565b91505092915050565b60008060408385031215611bf557611bf46119d3565b5b600083013567ffffffffffffffff811115611c1357611c126119d8565b5b611c1f85828601611bb0565b925050602083013567ffffffffffffffff811115611c4057611c3f6119d8565b5b611c4c85828601611bb0565b9150509250929050565b600081519050919050565b600082825260208201905092915050565b60005b83811015611c90578082015181840152602081019050611c75565b83811115611c9f576000848401525b50505050565b6000611cb082611c56565b611cba8185611c61565b9350611cca818560208601611c72565b611cd381611aa2565b840191505092915050565b60006020820190508181036000830152611cf88184611ca5565b905092915050565b6000819050919050565b611d1381611d00565b8114611d1e57600080fd5b50565b600081359050611d3081611d0a565b92915050565b600060208284031215611d4c57611d4b6119d3565b5b6000611d5a84828501611d21565b91505092915050565b600073ffffffffffffffffffffffffffffffffffffffff82169050919050565b6000611d8e82611d63565b9050919050565b611d9e81611d83565b82525050565b6000602082019050611db96000830184611d95565b92915050565b611dc881611d83565b8114611dd357600080fd5b50565b600081359050611de581611dbf565b92915050565b60008060408385031215611e0257611e016119d3565b5b6000611e1085828601611dd6565b9250506020611e2185828601611d21565b9150509250929050565b600060208284031215611e4157611e406119d3565b5b6000611e4f84828501611dd6565b91505092915050565b600080600060608486031215611e7157611e706119d3565b5b6000611e7f86828701611dd6565b9350506020611e9086828701611dd6565b9250506040611ea186828701611d21565b9150509250925092565b611eb481611d00565b82525050565b6000602082019050611ecf6000830184611eab565b92915050565b60006040820190508181036000830152611eef8185611ca5565b90508181036020830152611f038184611ca5565b90509392505050565b611f1581611a62565b8114611f2057600080fd5b50565b600081359050611f3281611f0c565b92915050565b60008060408385031215611f4f57611f4e6119d3565b5b6000611f5d85828601611dd6565b9250506020611f6e85828601611f23565b9150509250929050565b600067ffffffffffffffff821115611f9357611f92611ab3565b5b611f9c82611aa2565b9050602081019050919050565b6000611fbc611fb784611f78565b611b13565b905082815260208101848484011115611fd857611fd7611a9d565b5b611fe3848285611b5f565b509392505050565b600082601f83011261200057611fff611a98565b5b8135612010848260208601611fa9565b91505092915050565b60008060008060808587031215612033576120326119d3565b5b600061204187828801611dd6565b945050602061205287828801611dd6565b935050604061206387828801611d21565b925050606085013567ffffffffffffffff811115612084576120836119d8565b5b61209087828801611feb565b91505092959194509250565b600080604083850312156120b3576120b26119d3565b5b60006120c185828601611dd6565b92505060206120d285828601611dd6565b9150509250929050565b7f436f6e747261637420616c726561647920696e697469616c697a656400000000600082015250565b6000612112601c83611c61565b915061211d826120dc565b602082019050919050565b6000602082019050818103600083015261214181612105565b9050919050565b7f4e487b7100000000000000000000000000000000000000000000000000000000600052602260045260246000fd5b6000600282049050600182168061218f57607f821691505b6020821081036121a2576121a1612148565b5b50919050565b7f4552433732313a20617070726f76656420717565727920666f72206e6f6e657860008201527f697374656e7420746f6b656e0000000000000000000000000000000000000000602082015250565b6000612204602c83611c61565b915061220f826121a8565b604082019050919050565b60006020820190508181036000830152612233816121f7565b9050919050565b7f4552433732313a20617070726f76616c20746f2063757272656e74206f776e6560008201527f7200000000000000000000000000000000000000000000000000000000000000602082015250565b6000612296602183611c61565b91506122a18261223a565b604082019050919050565b600060208201905081810360008301526122c581612289565b9050919050565b7f4552433732313a20617070726f76652063616c6c6572206973206e6f74206f7760008201527f6e6572206e6f7220617070726f76656420666f7220616c6c0000000000000000602082015250565b6000612328603883611c61565b9150612333826122cc565b604082019050919050565b600060208201905081810360008301526123578161231b565b9050919050565b7f4e6f74206f776e65720000000000000000000000000000000000000000000000600082015250565b6000612394600983611c61565b915061239f8261235e565b602082019050919050565b600060208201905081810360008301526123c381612387565b9050919050565b7f496e76616c696420616464726573730000000000000000000000000000000000600082015250565b6000612400600f83611c61565b915061240b826123ca565b602082019050919050565b6000602082019050818103600083015261242f816123f3565b9050919050565b7f4552433732313a207472616e736665722063616c6c6572206973206e6f74206f60008201527f776e6572206e6f7220617070726f766564000000000000000000000000000000602082015250565b6000612492603183611c61565b915061249d82612436565b604082019050919050565b600060208201905081810360008301526124c181612485565b9050919050565b7f4552433732313a206f776e657220717565727920666f72206e6f6e657869737460008201527f656e7420746f6b656e0000000000000000000000000000000000000000000000602082015250565b6000612524602983611c61565b915061252f826124c8565b604082019050919050565b6000602082019050818103600083015261255381612517565b9050919050565b7f4552433732313a2062616c616e636520717565727920666f7220746865207a6560008201527f726f206164647265737300000000000000000000000000000000000000000000602082015250565b60006125b6602a83611c61565b91506125c18261255a565b604082019050919050565b600060208201905081810360008301526125e5816125a9565b9050919050565b7f4552433732314d657461646174613a2055524920717565727920666f72206e6f60008201527f6e6578697374656e7420746f6b656e0000000000000000000000000000000000602082015250565b6000612648602f83611c61565b9150612653826125ec565b604082019050919050565b600060208201905081810360008301526126778161263b565b9050919050565b600081905092915050565b600061269482611c56565b61269e818561267e565b93506126ae818560208601611c72565b80840191505092915050565b60006126c68285612689565b91506126d28284612689565b91508190509392505050565b7f4552433732313a206f70657261746f7220717565727920666f72206e6f6e657860008201527f697374656e7420746f6b656e0000000000000000000000000000000000000000602082015250565b600061273a602c83611c61565b9150612745826126de565b604082019050919050565b600060208201905081810360008301526127698161272d565b9050919050565b7f4552433732313a207472616e736665722066726f6d20696e636f72726563742060008201527f6f776e6572000000000000000000000000000000000000000000000000000000602082015250565b60006127cc602583611c61565b91506127d782612770565b604082019050919050565b600060208201905081810360008301526127fb816127bf565b9050919050565b7f4552433732313a207472616e7366657220746f20746865207a65726f2061646460008201527f7265737300000000000000000000000000000000000000000000000000000000602082015250565b600061285e602483611c61565b915061286982612802565b604082019050919050565b6000602082019050818103600083015261288d81612851565b9050919050565b7f4e487b7100000000000000000000000000000000000000000000000000000000600052601160045260246000fd5b60006128ce82611d00565b91506128d983611d00565b9250828210156128ec576128eb612894565b5b828203905092915050565b600061290282611d00565b915061290d83611d00565b9250827fffffffffffffffffffffffffffffffffffffffffffffffffffffffffffffffff0382111561294257612941612894565b5b828201905092915050565b7f4552433732313a20617070726f766520746f2063616c6c657200000000000000600082015250565b6000612983601983611c61565b915061298e8261294d565b602082019050919050565b600060208201905081810360008301526129b281612976565b9050919050565b7f4552433732313a207472616e7366657220746f206e6f6e20455243373231526560008201527f63656976657220696d706c656d656e7465720000000000000000000000000000602082015250565b6000612a15603283611c61565b9150612a20826129b9565b604082019050919050565b60006020820190508181036000830152612a4481612a08565b9050919050565b6000612a5682611d00565b91507fffffffffffffffffffffffffffffffffffffffffffffffffffffffffffffffff8203612a8857612a87612894565b5b600182019050919050565b7f4e487b7100000000000000000000000000000000000000000000000000000000600052601260045260246000fd5b6000612acd82611d00565b9150612ad883611d00565b925082612ae857612ae7612a93565b5b828204905092915050565b6000612afe82611d00565b9150612b0983611d00565b925082612b1957612b18612a93565b5b828206905092915050565b7f4e487b7100000000000000000000000000000000000000000000000000000000600052603260045260246000fd5b600081519050919050565b600082825260208201905092915050565b6000612b7a82612b53565b612b848185612b5e565b9350612b94818560208601611c72565b612b9d81611aa2565b840191505092915050565b6000608082019050612bbd6000830187611d95565b612bca6020830186611d95565b612bd76040830185611eab565b8181036060830152612be98184612b6f565b905095945050505050565b600081519050612c0381611a09565b92915050565b600060208284031215612c1f57612c1e6119d3565b5b6000612c2d84828501612bf4565b9150509291505056fea26469706673582212203940dac57613e2c6909af50d212a754695d09a150e768dc14f31dc5fe152702f64736f6c634300080e0033",
  "immutableReferences": {},
  "source": "// SPDX-License-Identifier: Apache-2.0\n\npragma solidity ^0.8.12;\n\nimport \"@openzeppelin/contracts/token/ERC721/ERC721.sol\";\nimport \"./Ownable.sol\";\n\ncontract ERC721Template is ERC721, Ownable {\n    string public template_url;\n    string public submission_url;\n\n    bool private _initialized;\n\n    constructor(\n        string memory name,\n        string memory symbol,\n        string memory URI\n    ) ERC721(name, symbol) {}\n\n    function initiailize(\n        string memory _template_url,\n        string memory _submission_url\n    ) external returns (bool) {\n        require(_initialized != true, \"Contract already initialized\");\n\n        template_url = _template_url;\n        submission_url = _submission_url;\n        _initialized = true;\n        return true;\n    }\n\n    function isInitialized() external view returns (bool) {\n        return _initialized;\n    }\n\n    function getMetadata()\n        external\n        view\n        returns (string memory _template_url, string memory _submission_url)\n    {\n        return (template_url, submission_url);\n    }\n}\n",
  "sourcePath": "/home/ash/Desktop/git/insights-contracts/contracts/ERC721Template.sol",
  "compiler": {
    "name": "solc",
    "version": "0.8.14+commit.80d49f37.Emscripten.clang"
  },
  "schemaVersion": "3.4.7",
  "updatedAt": "2022-06-01T09:11:08.120Z",
  "devdoc": {
    "kind": "dev",
    "methods": {
      "approve(address,uint256)": {
        "details": "See {IERC721-approve}."
      },
      "balanceOf(address)": {
        "details": "See {IERC721-balanceOf}."
      },
      "getApproved(uint256)": {
        "details": "See {IERC721-getApproved}."
      },
      "isApprovedForAll(address,address)": {
        "details": "See {IERC721-isApprovedForAll}."
      },
      "name()": {
        "details": "See {IERC721Metadata-name}."
      },
      "ownerOf(uint256)": {
        "details": "See {IERC721-ownerOf}."
      },
      "safeTransferFrom(address,address,uint256)": {
        "details": "See {IERC721-safeTransferFrom}."
      },
      "safeTransferFrom(address,address,uint256,bytes)": {
        "details": "See {IERC721-safeTransferFrom}."
      },
      "setApprovalForAll(address,bool)": {
        "details": "See {IERC721-setApprovalForAll}."
      },
      "supportsInterface(bytes4)": {
        "details": "See {IERC165-supportsInterface}."
      },
      "symbol()": {
        "details": "See {IERC721Metadata-symbol}."
      },
      "tokenURI(uint256)": {
        "details": "See {IERC721Metadata-tokenURI}."
      },
      "transferFrom(address,address,uint256)": {
        "details": "See {IERC721-transferFrom}."
      }
    },
    "version": 1
  },
  "userdoc": {
    "kind": "user",
    "methods": {},
    "version": 1
  }
}