{
  "contractName": "ERC721Factory",
  "abi": [
    {
      "inputs": [],
      "stateMutability": "nonpayable",
      "type": "constructor"
    },
    {
      "anonymous": false,
      "inputs": [
        {
          "indexed": false,
          "internalType": "address",
          "name": "newTokenAddress",
          "type": "address"
        },
        {
          "indexed": false,
          "internalType": "string",
          "name": "tokenName",
          "type": "string"
        },
        {
          "indexed": false,
          "internalType": "string",
          "name": "tokenSymbol",
          "type": "string"
        },
        {
          "indexed": false,
          "internalType": "string",
          "name": "tokenURI",
          "type": "string"
        }
      ],
      "name": "NftCreated",
      "type": "event"
    },
    {
      "inputs": [
        {
          "internalType": "string",
          "name": "name",
          "type": "string"
        },
        {
          "internalType": "string",
          "name": "symbol",
          "type": "string"
        },
        {
          "internalType": "string",
          "name": "uri",
          "type": "string"
        }
      ],
      "name": "deployERC721Contract",
      "outputs": [
        {
          "internalType": "address",
          "name": "token",
          "type": "address"
        }
      ],
      "stateMutability": "nonpayable",
      "type": "function"
    },
    {
      "inputs": [
        {
          "internalType": "uint256",
          "name": "",
          "type": "uint256"
        }
      ],
      "name": "nftAddresses",
      "outputs": [
        {
          "internalType": "address",
          "name": "",
          "type": "address"
        }
      ],
      "stateMutability": "view",
      "type": "function",
      "constant": true
    },
    {
      "inputs": [
        {
          "internalType": "string",
          "name": "name",
          "type": "string"
        },
        {
          "internalType": "string",
          "name": "symbol",
          "type": "string"
        },
        {
          "internalType": "string",
          "name": "uri",
          "type": "string"
        }
      ],
      "name": "deployNft",
      "outputs": [
        {
          "internalType": "address",
          "name": "token",
          "type": "address"
        }
      ],
      "stateMutability": "nonpayable",
      "type": "function"
    }
  ],
  "bytecode": "0x608060405234801561001057600080fd5b506131f4806100206000396000f3fe60806040523480156200001157600080fd5b5060043610620000465760003560e01c806324ec5a78146200004b578063411788f714620000815780637808740e14620000b7575b600080fd5b620000696004803603810190620000639190620002fd565b620000ed565b60405162000078919062000374565b60405180910390f35b6200009f6004803603810190620000999190620004f3565b6200012d565b604051620000ae919062000374565b60405180910390f35b620000d56004803603810190620000cf9190620004f3565b62000258565b604051620000e4919062000374565b60405180910390f35b60008181548110620000fe57600080fd5b906000526020600020016000915054906101000a900473ffffffffffffffffffffffffffffffffffffffff1681565b60006200013c84848462000258565b9050600073ffffffffffffffffffffffffffffffffffffffff168173ffffffffffffffffffffffffffffffffffffffff1603620001b0576040517f08c379a0000000000000000000000000000000000000000000000000000000008152600401620001a7906200060d565b60405180910390fd5b6000819080600181540180825580915050600190039060005260206000200160009091909190916101000a81548173ffffffffffffffffffffffffffffffffffffffff021916908373ffffffffffffffffffffffffffffffffffffffff1602179055507e5ad40373f668511e6848a118f38257396030432f57785a69a98403f1ece64081858585604051620002499493929190620006b1565b60405180910390a19392505050565b60008383836040516200026b90620002a0565b620002799392919062000713565b604051809103906000f08015801562000296573d6000803e3d6000fd5b5090509392505050565b612a59806200076683390190565b6000604051905090565b600080fd5b600080fd5b6000819050919050565b620002d781620002c2565b8114620002e357600080fd5b50565b600081359050620002f781620002cc565b92915050565b600060208284031215620003165762000315620002b8565b5b60006200032684828501620002e6565b91505092915050565b600073ffffffffffffffffffffffffffffffffffffffff82169050919050565b60006200035c826200032f565b9050919050565b6200036e816200034f565b82525050565b60006020820190506200038b600083018462000363565b92915050565b600080fd5b600080fd5b6000601f19601f8301169050919050565b7f4e487b7100000000000000000000000000000000000000000000000000000000600052604160045260246000fd5b620003e6826200039b565b810181811067ffffffffffffffff82111715620004085762000407620003ac565b5b80604052505050565b60006200041d620002ae565b90506200042b8282620003db565b919050565b600067ffffffffffffffff8211156200044e576200044d620003ac565b5b62000459826200039b565b9050602081019050919050565b82818337600083830152505050565b60006200048c620004868462000430565b62000411565b905082815260208101848484011115620004ab57620004aa62000396565b5b620004b884828562000466565b509392505050565b600082601f830112620004d857620004d762000391565b5b8135620004ea84826020860162000475565b91505092915050565b6000806000606084860312156200050f576200050e620002b8565b5b600084013567ffffffffffffffff81111562000530576200052f620002bd565b5b6200053e86828701620004c0565b935050602084013567ffffffffffffffff811115620005625762000561620002bd565b5b6200057086828701620004c0565b925050604084013567ffffffffffffffff811115620005945762000593620002bd565b5b620005a286828701620004c0565b9150509250925092565b600082825260208201905092915050565b7f4e6674206372656174696f6e206661696c656400000000000000000000000000600082015250565b6000620005f5601383620005ac565b91506200060282620005bd565b602082019050919050565b600060208201905081810360008301526200062881620005e6565b9050919050565b600081519050919050565b60005b838110156200065a5780820151818401526020810190506200063d565b838111156200066a576000848401525b50505050565b60006200067d826200062f565b620006898185620005ac565b93506200069b8185602086016200063a565b620006a6816200039b565b840191505092915050565b6000608082019050620006c8600083018762000363565b8181036020830152620006dc818662000670565b90508181036040830152620006f2818562000670565b9050818103606083015262000708818462000670565b905095945050505050565b600060608201905081810360008301526200072f818662000670565b9050818103602083015262000745818562000670565b905081810360408301526200075b818462000670565b905094935050505056fe60806040523480156200001157600080fd5b5060405162002a5938038062002a59833981810160405281019062000037919062000304565b8282816000908051906020019062000051929190620000b7565b5080600190805190602001906200006a929190620000b7565b50505033600660006101000a81548173ffffffffffffffffffffffffffffffffffffffff021916908373ffffffffffffffffffffffffffffffffffffffff16021790555050505062000421565b828054620000c590620003ec565b90600052602060002090601f016020900481019282620000e9576000855562000135565b82601f106200010457805160ff191683800117855562000135565b8280016001018555821562000135579182015b828111156200013457825182559160200191906001019062000117565b5b50905062000144919062000148565b5090565b5b808211156200016357600081600090555060010162000149565b5090565b6000604051905090565b600080fd5b600080fd5b600080fd5b600080fd5b6000601f19601f8301169050919050565b7f4e487b7100000000000000000000000000000000000000000000000000000000600052604160045260246000fd5b620001d08262000185565b810181811067ffffffffffffffff82111715620001f257620001f162000196565b5b80604052505050565b60006200020762000167565b9050620002158282620001c5565b919050565b600067ffffffffffffffff82111562000238576200023762000196565b5b620002438262000185565b9050602081019050919050565b60005b838110156200027057808201518184015260208101905062000253565b8381111562000280576000848401525b50505050565b60006200029d62000297846200021a565b620001fb565b905082815260208101848484011115620002bc57620002bb62000180565b5b620002c984828562000250565b509392505050565b600082601f830112620002e957620002e86200017b565b5b8151620002fb84826020860162000286565b91505092915050565b60008060006060848603121562000320576200031f62000171565b5b600084015167ffffffffffffffff81111562000341576200034062000176565b5b6200034f86828701620002d1565b935050602084015167ffffffffffffffff81111562000373576200037262000176565b5b6200038186828701620002d1565b925050604084015167ffffffffffffffff811115620003a557620003a462000176565b5b620003b386828701620002d1565b9150509250925092565b7f4e487b7100000000000000000000000000000000000000000000000000000000600052602260045260246000fd5b600060028204905060018216806200040557607f821691505b6020821081036200041b576200041a620003bd565b5b50919050565b61262880620004316000396000f3fe608060405234801561001057600080fd5b50600436106100ea5760003560e01c80636352211e1161008c578063a22cb46511610066578063a22cb4651461025b578063b88d4fde14610277578063c87b56dd14610293578063e985e9c5146102c3576100ea565b80636352211e146101dd57806370a082311461020d57806395d89b411461023d576100ea565b8063095ea7b3116100c8578063095ea7b31461016d57806313af40351461018957806323b872dd146101a557806342842e0e146101c1576100ea565b806301ffc9a7146100ef57806306fdde031461011f578063081812fc1461013d575b600080fd5b610109600480360381019061010491906115ad565b6102f3565b60405161011691906115f5565b60405180910390f35b6101276103d5565b60405161013491906116a9565b60405180910390f35b61015760048036038101906101529190611701565b610467565b604051610164919061176f565b60405180910390f35b610187600480360381019061018291906117b6565b6104ec565b005b6101a3600480360381019061019e91906117f6565b610603565b005b6101bf60048036038101906101ba9190611823565b610746565b005b6101db60048036038101906101d69190611823565b6107a6565b005b6101f760048036038101906101f29190611701565b6107c6565b604051610204919061176f565b60405180910390f35b610227600480360381019061022291906117f6565b610877565b6040516102349190611885565b60405180910390f35b61024561092e565b60405161025291906116a9565b60405180910390f35b610275600480360381019061027091906118cc565b6109c0565b005b610291600480360381019061028c9190611a41565b6109d6565b005b6102ad60048036038101906102a89190611701565b610a38565b6040516102ba91906116a9565b60405180910390f35b6102dd60048036038101906102d89190611ac4565b610adf565b6040516102ea91906115f5565b60405180910390f35b60007f80ac58cd000000000000000000000000000000000000000000000000000000007bffffffffffffffffffffffffffffffffffffffffffffffffffffffff1916827bffffffffffffffffffffffffffffffffffffffffffffffffffffffff191614806103be57507f5b5e139f000000000000000000000000000000000000000000000000000000007bffffffffffffffffffffffffffffffffffffffffffffffffffffffff1916827bffffffffffffffffffffffffffffffffffffffffffffffffffffffff1916145b806103ce57506103cd82610b73565b5b9050919050565b6060600080546103e490611b33565b80601f016020809104026020016040519081016040528092919081815260200182805461041090611b33565b801561045d5780601f106104325761010080835404028352916020019161045d565b820191906000526020600020905b81548152906001019060200180831161044057829003601f168201915b5050505050905090565b600061047282610bdd565b6104b1576040517f08c379a00000000000000000000000000000000000000000000000000000000081526004016104a890611bd6565b60405180910390fd5b6004600083815260200190815260200160002060009054906101000a900473ffffffffffffffffffffffffffffffffffffffff169050919050565b60006104f7826107c6565b90508073ffffffffffffffffffffffffffffffffffffffff168373ffffffffffffffffffffffffffffffffffffffff1603610567576040517f08c379a000000000000000000000000000000000000000000000000000000000815260040161055e90611c68565b60405180910390fd5b8073ffffffffffffffffffffffffffffffffffffffff16610586610c49565b73ffffffffffffffffffffffffffffffffffffffff1614806105b557506105b4816105af610c49565b610adf565b5b6105f4576040517f08c379a00000000000000000000000000000000000000000000000000000000081526004016105eb90611cfa565b60405180910390fd5b6105fe8383610c51565b505050565b600660009054906101000a900473ffffffffffffffffffffffffffffffffffffffff1673ffffffffffffffffffffffffffffffffffffffff163373ffffffffffffffffffffffffffffffffffffffff1614610693576040517f08c379a000000000000000000000000000000000000000000000000000000000815260040161068a90611d66565b60405180910390fd5b600073ffffffffffffffffffffffffffffffffffffffff168173ffffffffffffffffffffffffffffffffffffffff1603610702576040517f08c379a00000000000000000000000000000000000000000000000000000000081526004016106f990611dd2565b60405180910390fd5b80600660006101000a81548173ffffffffffffffffffffffffffffffffffffffff021916908373ffffffffffffffffffffffffffffffffffffffff16021790555050565b610757610751610c49565b82610d0a565b610796576040517f08c379a000000000000000000000000000000000000000000000000000000000815260040161078d90611e64565b60405180910390fd5b6107a1838383610de8565b505050565b6107c1838383604051806020016040528060008152506109d6565b505050565b6000806002600084815260200190815260200160002060009054906101000a900473ffffffffffffffffffffffffffffffffffffffff169050600073ffffffffffffffffffffffffffffffffffffffff168173ffffffffffffffffffffffffffffffffffffffff160361086e576040517f08c379a000000000000000000000000000000000000000000000000000000000815260040161086590611ef6565b60405180910390fd5b80915050919050565b60008073ffffffffffffffffffffffffffffffffffffffff168273ffffffffffffffffffffffffffffffffffffffff16036108e7576040517f08c379a00000000000000000000000000000000000000000000000000000000081526004016108de90611f88565b60405180910390fd5b600360008373ffffffffffffffffffffffffffffffffffffffff1673ffffffffffffffffffffffffffffffffffffffff168152602001908152602001600020549050919050565b60606001805461093d90611b33565b80601f016020809104026020016040519081016040528092919081815260200182805461096990611b33565b80156109b65780601f1061098b576101008083540402835291602001916109b6565b820191906000526020600020905b81548152906001019060200180831161099957829003601f168201915b5050505050905090565b6109d26109cb610c49565b838361104e565b5050565b6109e76109e1610c49565b83610d0a565b610a26576040517f08c379a0000000000000000000000000000000000000000000000000000000008152600401610a1d90611e64565b60405180910390fd5b610a32848484846111ba565b50505050565b6060610a4382610bdd565b610a82576040517f08c379a0000000000000000000000000000000000000000000000000000000008152600401610a799061201a565b60405180910390fd5b6000610a8c611216565b90506000815111610aac5760405180602001604052806000815250610ad7565b80610ab68461122d565b604051602001610ac7929190612076565b6040516020818303038152906040525b915050919050565b6000600560008473ffffffffffffffffffffffffffffffffffffffff1673ffffffffffffffffffffffffffffffffffffffff16815260200190815260200160002060008373ffffffffffffffffffffffffffffffffffffffff1673ffffffffffffffffffffffffffffffffffffffff16815260200190815260200160002060009054906101000a900460ff16905092915050565b60007f01ffc9a7000000000000000000000000000000000000000000000000000000007bffffffffffffffffffffffffffffffffffffffffffffffffffffffff1916827bffffffffffffffffffffffffffffffffffffffffffffffffffffffff1916149050919050565b60008073ffffffffffffffffffffffffffffffffffffffff166002600084815260200190815260200160002060009054906101000a900473ffffffffffffffffffffffffffffffffffffffff1673ffffffffffffffffffffffffffffffffffffffff1614159050919050565b600033905090565b816004600083815260200190815260200160002060006101000a81548173ffffffffffffffffffffffffffffffffffffffff021916908373ffffffffffffffffffffffffffffffffffffffff160217905550808273ffffffffffffffffffffffffffffffffffffffff16610cc4836107c6565b73ffffffffffffffffffffffffffffffffffffffff167f8c5be1e5ebec7d5bd14f71427d1e84f3dd0314c0f7b2291e5b200ac8c7c3b92560405160405180910390a45050565b6000610d1582610bdd565b610d54576040517f08c379a0000000000000000000000000000000000000000000000000000000008152600401610d4b9061210c565b60405180910390fd5b6000610d5f836107c6565b90508073ffffffffffffffffffffffffffffffffffffffff168473ffffffffffffffffffffffffffffffffffffffff161480610da15750610da08185610adf565b5b80610ddf57508373ffffffffffffffffffffffffffffffffffffffff16610dc784610467565b73ffffffffffffffffffffffffffffffffffffffff16145b91505092915050565b8273ffffffffffffffffffffffffffffffffffffffff16610e08826107c6565b73ffffffffffffffffffffffffffffffffffffffff1614610e5e576040517f08c379a0000000000000000000000000000000000000000000000000000000008152600401610e559061219e565b60405180910390fd5b600073ffffffffffffffffffffffffffffffffffffffff168273ffffffffffffffffffffffffffffffffffffffff1603610ecd576040517f08c379a0000000000000000000000000000000000000000000000000000000008152600401610ec490612230565b60405180910390fd5b610ed883838361138d565b610ee3600082610c51565b6001600360008573ffffffffffffffffffffffffffffffffffffffff1673ffffffffffffffffffffffffffffffffffffffff1681526020019081526020016000206000828254610f33919061227f565b925050819055506001600360008473ffffffffffffffffffffffffffffffffffffffff1673ffffffffffffffffffffffffffffffffffffffff1681526020019081526020016000206000828254610f8a91906122b3565b92505081905550816002600083815260200190815260200160002060006101000a81548173ffffffffffffffffffffffffffffffffffffffff021916908373ffffffffffffffffffffffffffffffffffffffff160217905550808273ffffffffffffffffffffffffffffffffffffffff168473ffffffffffffffffffffffffffffffffffffffff167fddf252ad1be2c89b69c2b068fc378daa952ba7f163c4a11628f55a4df523b3ef60405160405180910390a4611049838383611392565b505050565b8173ffffffffffffffffffffffffffffffffffffffff168373ffffffffffffffffffffffffffffffffffffffff16036110bc576040517f08c379a00000000000000000000000000000000000000000000000000000000081526004016110b390612355565b60405180910390fd5b80600560008573ffffffffffffffffffffffffffffffffffffffff1673ffffffffffffffffffffffffffffffffffffffff16815260200190815260200160002060008473ffffffffffffffffffffffffffffffffffffffff1673ffffffffffffffffffffffffffffffffffffffff16815260200190815260200160002060006101000a81548160ff0219169083151502179055508173ffffffffffffffffffffffffffffffffffffffff168373ffffffffffffffffffffffffffffffffffffffff167f17307eab39ab6107e8899845ad3d59bd9653f200f220920489ca2b5937696c31836040516111ad91906115f5565b60405180910390a3505050565b6111c5848484610de8565b6111d184848484611397565b611210576040517f08c379a0000000000000000000000000000000000000000000000000000000008152600401611207906123e7565b60405180910390fd5b50505050565b606060405180602001604052806000815250905090565b606060008203611274576040518060400160405280600181526020017f30000000000000000000000000000000000000000000000000000000000000008152509050611388565b600082905060005b600082146112a657808061128f90612407565b915050600a8261129f919061247e565b915061127c565b60008167ffffffffffffffff8111156112c2576112c1611916565b5b6040519080825280601f01601f1916602001820160405280156112f45781602001600182028036833780820191505090505b5090505b600085146113815760018261130d919061227f565b9150600a8561131c91906124af565b603061132891906122b3565b60f81b81838151811061133e5761133d6124e0565b5b60200101907effffffffffffffffffffffffffffffffffffffffffffffffffffffffffffff1916908160001a905350600a8561137a919061247e565b94506112f8565b8093505050505b919050565b505050565b505050565b60006113b88473ffffffffffffffffffffffffffffffffffffffff1661151e565b15611511578373ffffffffffffffffffffffffffffffffffffffff1663150b7a026113e1610c49565b8786866040518563ffffffff1660e01b81526004016114039493929190612564565b6020604051808303816000875af192505050801561143f57506040513d601f19601f8201168201806040525081019061143c91906125c5565b60015b6114c1573d806000811461146f576040519150601f19603f3d011682016040523d82523d6000602084013e611474565b606091505b5060008151036114b9576040517f08c379a00000000000000000000000000000000000000000000000000000000081526004016114b0906123e7565b60405180910390fd5b805181602001fd5b63150b7a0260e01b7bffffffffffffffffffffffffffffffffffffffffffffffffffffffff1916817bffffffffffffffffffffffffffffffffffffffffffffffffffffffff191614915050611516565b600190505b949350505050565b6000808273ffffffffffffffffffffffffffffffffffffffff163b119050919050565b6000604051905090565b600080fd5b600080fd5b60007fffffffff0000000000000000000000000000000000000000000000000000000082169050919050565b61158a81611555565b811461159557600080fd5b50565b6000813590506115a781611581565b92915050565b6000602082840312156115c3576115c261154b565b5b60006115d184828501611598565b91505092915050565b60008115159050919050565b6115ef816115da565b82525050565b600060208201905061160a60008301846115e6565b92915050565b600081519050919050565b600082825260208201905092915050565b60005b8381101561164a57808201518184015260208101905061162f565b83811115611659576000848401525b50505050565b6000601f19601f8301169050919050565b600061167b82611610565b611685818561161b565b935061169581856020860161162c565b61169e8161165f565b840191505092915050565b600060208201905081810360008301526116c38184611670565b905092915050565b6000819050919050565b6116de816116cb565b81146116e957600080fd5b50565b6000813590506116fb816116d5565b92915050565b6000602082840312156117175761171661154b565b5b6000611725848285016116ec565b91505092915050565b600073ffffffffffffffffffffffffffffffffffffffff82169050919050565b60006117598261172e565b9050919050565b6117698161174e565b82525050565b60006020820190506117846000830184611760565b92915050565b6117938161174e565b811461179e57600080fd5b50565b6000813590506117b08161178a565b92915050565b600080604083850312156117cd576117cc61154b565b5b60006117db858286016117a1565b92505060206117ec858286016116ec565b9150509250929050565b60006020828403121561180c5761180b61154b565b5b600061181a848285016117a1565b91505092915050565b60008060006060848603121561183c5761183b61154b565b5b600061184a868287016117a1565b935050602061185b868287016117a1565b925050604061186c868287016116ec565b9150509250925092565b61187f816116cb565b82525050565b600060208201905061189a6000830184611876565b92915050565b6118a9816115da565b81146118b457600080fd5b50565b6000813590506118c6816118a0565b92915050565b600080604083850312156118e3576118e261154b565b5b60006118f1858286016117a1565b9250506020611902858286016118b7565b9150509250929050565b600080fd5b600080fd5b7f4e487b7100000000000000000000000000000000000000000000000000000000600052604160045260246000fd5b61194e8261165f565b810181811067ffffffffffffffff8211171561196d5761196c611916565b5b80604052505050565b6000611980611541565b905061198c8282611945565b919050565b600067ffffffffffffffff8211156119ac576119ab611916565b5b6119b58261165f565b9050602081019050919050565b82818337600083830152505050565b60006119e46119df84611991565b611976565b905082815260208101848484011115611a00576119ff611911565b5b611a0b8482856119c2565b509392505050565b600082601f830112611a2857611a2761190c565b5b8135611a388482602086016119d1565b91505092915050565b60008060008060808587031215611a5b57611a5a61154b565b5b6000611a69878288016117a1565b9450506020611a7a878288016117a1565b9350506040611a8b878288016116ec565b925050606085013567ffffffffffffffff811115611aac57611aab611550565b5b611ab887828801611a13565b91505092959194509250565b60008060408385031215611adb57611ada61154b565b5b6000611ae9858286016117a1565b9250506020611afa858286016117a1565b9150509250929050565b7f4e487b7100000000000000000000000000000000000000000000000000000000600052602260045260246000fd5b60006002820490506001821680611b4b57607f821691505b602082108103611b5e57611b5d611b04565b5b50919050565b7f4552433732313a20617070726f76656420717565727920666f72206e6f6e657860008201527f697374656e7420746f6b656e0000000000000000000000000000000000000000602082015250565b6000611bc0602c8361161b565b9150611bcb82611b64565b604082019050919050565b60006020820190508181036000830152611bef81611bb3565b9050919050565b7f4552433732313a20617070726f76616c20746f2063757272656e74206f776e6560008201527f7200000000000000000000000000000000000000000000000000000000000000602082015250565b6000611c5260218361161b565b9150611c5d82611bf6565b604082019050919050565b60006020820190508181036000830152611c8181611c45565b9050919050565b7f4552433732313a20617070726f76652063616c6c6572206973206e6f74206f7760008201527f6e6572206e6f7220617070726f76656420666f7220616c6c0000000000000000602082015250565b6000611ce460388361161b565b9150611cef82611c88565b604082019050919050565b60006020820190508181036000830152611d1381611cd7565b9050919050565b7f4e6f74206f776e65720000000000000000000000000000000000000000000000600082015250565b6000611d5060098361161b565b9150611d5b82611d1a565b602082019050919050565b60006020820190508181036000830152611d7f81611d43565b9050919050565b7f496e76616c696420616464726573730000000000000000000000000000000000600082015250565b6000611dbc600f8361161b565b9150611dc782611d86565b602082019050919050565b60006020820190508181036000830152611deb81611daf565b9050919050565b7f4552433732313a207472616e736665722063616c6c6572206973206e6f74206f60008201527f776e6572206e6f7220617070726f766564000000000000000000000000000000602082015250565b6000611e4e60318361161b565b9150611e5982611df2565b604082019050919050565b60006020820190508181036000830152611e7d81611e41565b9050919050565b7f4552433732313a206f776e657220717565727920666f72206e6f6e657869737460008201527f656e7420746f6b656e0000000000000000000000000000000000000000000000602082015250565b6000611ee060298361161b565b9150611eeb82611e84565b604082019050919050565b60006020820190508181036000830152611f0f81611ed3565b9050919050565b7f4552433732313a2062616c616e636520717565727920666f7220746865207a6560008201527f726f206164647265737300000000000000000000000000000000000000000000602082015250565b6000611f72602a8361161b565b9150611f7d82611f16565b604082019050919050565b60006020820190508181036000830152611fa181611f65565b9050919050565b7f4552433732314d657461646174613a2055524920717565727920666f72206e6f60008201527f6e6578697374656e7420746f6b656e0000000000000000000000000000000000602082015250565b6000612004602f8361161b565b915061200f82611fa8565b604082019050919050565b6000602082019050818103600083015261203381611ff7565b9050919050565b600081905092915050565b600061205082611610565b61205a818561203a565b935061206a81856020860161162c565b80840191505092915050565b60006120828285612045565b915061208e8284612045565b91508190509392505050565b7f4552433732313a206f70657261746f7220717565727920666f72206e6f6e657860008201527f697374656e7420746f6b656e0000000000000000000000000000000000000000602082015250565b60006120f6602c8361161b565b91506121018261209a565b604082019050919050565b60006020820190508181036000830152612125816120e9565b9050919050565b7f4552433732313a207472616e736665722066726f6d20696e636f72726563742060008201527f6f776e6572000000000000000000000000000000000000000000000000000000602082015250565b600061218860258361161b565b91506121938261212c565b604082019050919050565b600060208201905081810360008301526121b78161217b565b9050919050565b7f4552433732313a207472616e7366657220746f20746865207a65726f2061646460008201527f7265737300000000000000000000000000000000000000000000000000000000602082015250565b600061221a60248361161b565b9150612225826121be565b604082019050919050565b600060208201905081810360008301526122498161220d565b9050919050565b7f4e487b7100000000000000000000000000000000000000000000000000000000600052601160045260246000fd5b600061228a826116cb565b9150612295836116cb565b9250828210156122a8576122a7612250565b5b828203905092915050565b60006122be826116cb565b91506122c9836116cb565b9250827fffffffffffffffffffffffffffffffffffffffffffffffffffffffffffffffff038211156122fe576122fd612250565b5b828201905092915050565b7f4552433732313a20617070726f766520746f2063616c6c657200000000000000600082015250565b600061233f60198361161b565b915061234a82612309565b602082019050919050565b6000602082019050818103600083015261236e81612332565b9050919050565b7f4552433732313a207472616e7366657220746f206e6f6e20455243373231526560008201527f63656976657220696d706c656d656e7465720000000000000000000000000000602082015250565b60006123d160328361161b565b91506123dc82612375565b604082019050919050565b60006020820190508181036000830152612400816123c4565b9050919050565b6000612412826116cb565b91507fffffffffffffffffffffffffffffffffffffffffffffffffffffffffffffffff820361244457612443612250565b5b600182019050919050565b7f4e487b7100000000000000000000000000000000000000000000000000000000600052601260045260246000fd5b6000612489826116cb565b9150612494836116cb565b9250826124a4576124a361244f565b5b828204905092915050565b60006124ba826116cb565b91506124c5836116cb565b9250826124d5576124d461244f565b5b828206905092915050565b7f4e487b7100000000000000000000000000000000000000000000000000000000600052603260045260246000fd5b600081519050919050565b600082825260208201905092915050565b60006125368261250f565b612540818561251a565b935061255081856020860161162c565b6125598161165f565b840191505092915050565b60006080820190506125796000830187611760565b6125866020830186611760565b6125936040830185611876565b81810360608301526125a5818461252b565b905095945050505050565b6000815190506125bf81611581565b92915050565b6000602082840312156125db576125da61154b565b5b60006125e9848285016125b0565b9150509291505056fea26469706673582212208205471ad2664fc6924fef55db2d0f7932f5c88349b0e871920251123536131e64736f6c634300080e0033a2646970667358221220aa53bbf06f5eebabd5ddff83b8fbfaf20446fa326afc2f65f92554c073071a1264736f6c634300080e0033",
  "immutableReferences": {},
  "source": "// SPDX-License-Identifier: Apache-2.0\n\npragma solidity ^0.8.12;\n\nimport \"./Deployer.sol\";\n\ncontract ERC721Factory is Deployer {\n    constructor() {}\n\n    address[] public nftAddresses;\n\n    event NftCreated(\n        address newTokenAddress,\n        string tokenName,\n        string tokenSymbol,\n        string tokenURI\n    );\n\n    address private templateERC721;\n\n    function deployNft(\n        string memory name,\n        string memory symbol,\n        string memory uri\n    ) public returns (address token) {\n        token = deployERC721Contract(name, symbol, uri);\n        require(token != address(0), \"Nft creation failed\");\n        nftAddresses.push(token);\n        emit NftCreated(token, name, symbol, uri);\n    }\n}\n",
  "sourcePath": "/home/ash/Desktop/git/insights-contracts/contracts/ERC721Factory.sol",
  "compiler": {
    "name": "solc",
    "version": "0.8.14+commit.80d49f37.Emscripten.clang"
  },
  "schemaVersion": "3.4.7",
  "updatedAt": "2022-05-26T14:38:08.648Z",
  "networkType": "ethereum",
  "devdoc": {
    "kind": "dev",
    "methods": {},
    "version": 1
  },
  "userdoc": {
    "kind": "user",
    "methods": {},
    "version": 1
  }
}